{"contracts/Natsu.sol":{"Natsu":{"abi":[{"inputs":[],"stateMutability":"nonpayable","type":"constructor"},{"anonymous":false,"inputs":[{"indexed":true,"internalType":"address","name":"owner","type":"address"},{"indexed":true,"internalType":"address","name":"approved","type":"address"},{"indexed":true,"internalType":"uint256","name":"tokenId","type":"uint256"}],"name":"Approval","type":"event"},{"anonymous":false,"inputs":[{"indexed":true,"internalType":"address","name":"owner","type":"address"},{"indexed":true,"internalType":"address","name":"operator","type":"address"},{"indexed":false,"internalType":"bool","name":"approved","type":"bool"}],"name":"ApprovalForAll","type":"event"},{"anonymous":false,"inputs":[{"indexed":true,"internalType":"address","name":"from","type":"address"},{"indexed":true,"internalType":"address","name":"to","type":"address"},{"indexed":true,"internalType":"uint256","name":"tokenId","type":"uint256"}],"name":"Transfer","type":"event"},{"inputs":[{"internalType":"address","name":"to","type":"address"},{"internalType":"string","name":"_tokenURI","type":"string"}],"name":"_mintNFT","outputs":[],"stateMutability":"nonpayable","type":"function"},{"inputs":[{"internalType":"address","name":"to","type":"address"},{"internalType":"uint256","name":"tokenId","type":"uint256"}],"name":"approve","outputs":[],"stateMutability":"nonpayable","type":"function"},{"inputs":[{"internalType":"address","name":"owner","type":"address"}],"name":"balanceOf","outputs":[{"internalType":"uint256","name":"","type":"uint256"}],"stateMutability":"view","type":"function"},{"inputs":[{"internalType":"uint256","name":"tokenId","type":"uint256"}],"name":"getApproved","outputs":[{"internalType":"address","name":"","type":"address"}],"stateMutability":"view","type":"function"},{"inputs":[{"internalType":"address","name":"owner","type":"address"},{"internalType":"address","name":"operator","type":"address"}],"name":"isApprovedForAll","outputs":[{"internalType":"bool","name":"","type":"bool"}],"stateMutability":"view","type":"function"},{"inputs":[],"name":"name","outputs":[{"internalType":"string","name":"","type":"string"}],"stateMutability":"view","type":"function"},{"inputs":[{"internalType":"uint256","name":"tokenId","type":"uint256"}],"name":"ownerOf","outputs":[{"internalType":"address","name":"","type":"address"}],"stateMutability":"view","type":"function"},{"inputs":[{"internalType":"address","name":"from","type":"address"},{"internalType":"address","name":"to","type":"address"},{"internalType":"uint256","name":"tokenId","type":"uint256"}],"name":"safeTransferFrom","outputs":[],"stateMutability":"nonpayable","type":"function"},{"inputs":[{"internalType":"address","name":"from","type":"address"},{"internalType":"address","name":"to","type":"address"},{"internalType":"uint256","name":"tokenId","type":"uint256"},{"internalType":"bytes","name":"data","type":"bytes"}],"name":"safeTransferFrom","outputs":[],"stateMutability":"nonpayable","type":"function"},{"inputs":[{"internalType":"address","name":"operator","type":"address"},{"internalType":"bool","name":"approved","type":"bool"}],"name":"setApprovalForAll","outputs":[],"stateMutability":"nonpayable","type":"function"},{"inputs":[{"internalType":"bytes4","name":"interfaceId","type":"bytes4"}],"name":"supportsInterface","outputs":[{"internalType":"bool","name":"","type":"bool"}],"stateMutability":"view","type":"function"},{"inputs":[],"name":"symbol","outputs":[{"internalType":"string","name":"","type":"string"}],"stateMutability":"view","type":"function"},{"inputs":[{"internalType":"uint256","name":"tokenId","type":"uint256"}],"name":"tokenURI","outputs":[{"internalType":"string","name":"","type":"string"}],"stateMutability":"view","type":"function"},{"inputs":[{"internalType":"address","name":"from","type":"address"},{"internalType":"address","name":"to","type":"address"},{"internalType":"uint256","name":"tokenId","type":"uint256"}],"name":"transferFrom","outputs":[],"stateMutability":"nonpayable","type":"function"}],"evm":{"bytecode":{"linkReferences":{},"object":"60806040523480156200001157600080fd5b506040518060400160405280600581526020017f4e617473750000000000000000000000000000000000000000000000000000008152506040518060400160405280600581526020017f4e41545355000000000000000000000000000000000000000000000000000000815250816000908051906020019062000096929190620000c0565b508060019080519060200190620000af929190620000c0565b5050506000600781905550620001d5565b828054620000ce906200019f565b90600052602060002090601f016020900481019282620000f257600085556200013e565b82601f106200010d57805160ff19168380011785556200013e565b828001600101855582156200013e579182015b828111156200013d57825182559160200191906001019062000120565b5b5090506200014d919062000151565b5090565b5b808211156200016c57600081600090555060010162000152565b5090565b7f4e487b7100000000000000000000000000000000000000000000000000000000600052602260045260246000fd5b60006002820490506001821680620001b857607f821691505b60208210811415620001cf57620001ce62000170565b5b50919050565b612aa380620001e56000396000f3fe608060405234801561001057600080fd5b50600436106100ea5760003560e01c806368f81c311161008c578063a22cb46511610066578063a22cb4651461025b578063b88d4fde14610277578063c87b56dd14610293578063e985e9c5146102c3576100ea565b806368f81c31146101f157806370a082311461020d57806395d89b411461023d576100ea565b8063095ea7b3116100c8578063095ea7b31461016d57806323b872dd1461018957806342842e0e146101a55780636352211e146101c1576100ea565b806301ffc9a7146100ef57806306fdde031461011f578063081812fc1461013d575b600080fd5b61010960048036038101906101049190611b04565b6102f3565b6040516101169190611b4c565b60405180910390f35b6101276103d5565b6040516101349190611c00565b60405180910390f35b61015760048036038101906101529190611c58565b610467565b6040516101649190611cc6565b60405180910390f35b61018760048036038101906101829190611d0d565b6104ad565b005b6101a3600480360381019061019e9190611d4d565b6105c5565b005b6101bf60048036038101906101ba9190611d4d565b610625565b005b6101db60048036038101906101d69190611c58565b610645565b6040516101e89190611cc6565b60405180910390f35b61020b60048036038101906102069190611ed5565b6106cc565b005b61022760048036038101906102229190611f31565b61070c565b6040516102349190611f6d565b60405180910390f35b6102456107c4565b6040516102529190611c00565b60405180910390f35b61027560048036038101906102709190611fb4565b610856565b005b610291600480360381019061028c9190612095565b61086c565b005b6102ad60048036038101906102a89190611c58565b6108ce565b6040516102ba9190611c00565b60405180910390f35b6102dd60048036038101906102d89190612118565b6108e0565b6040516102ea9190611b4c565b60405180910390f35b60007f80ac58cd000000000000000000000000000000000000000000000000000000007bffffffffffffffffffffffffffffffffffffffffffffffffffffffff1916827bffffffffffffffffffffffffffffffffffffffffffffffffffffffff191614806103be57507f5b5e139f000000000000000000000000000000000000000000000000000000007bffffffffffffffffffffffffffffffffffffffffffffffffffffffff1916827bffffffffffffffffffffffffffffffffffffffffffffffffffffffff1916145b806103ce57506103cd82610974565b5b9050919050565b6060600080546103e490612187565b80601f016020809104026020016040519081016040528092919081815260200182805461041090612187565b801561045d5780601f106104325761010080835404028352916020019161045d565b820191906000526020600020905b81548152906001019060200180831161044057829003601f168201915b5050505050905090565b6000610472826109de565b6004600083815260200190815260200160002060009054906101000a900473ffffffffffffffffffffffffffffffffffffffff169050919050565b60006104b882610645565b90508073ffffffffffffffffffffffffffffffffffffffff168373ffffffffffffffffffffffffffffffffffffffff161415610529576040517f08c379a00000000000000000000000000000000000000000000000000000000081526004016105209061222b565b60405180910390fd5b8073ffffffffffffffffffffffffffffffffffffffff16610548610a29565b73ffffffffffffffffffffffffffffffffffffffff161480610577575061057681610571610a29565b6108e0565b5b6105b6576040517f08c379a00000000000000000000000000000000000000000000000000000000081526004016105ad906122bd565b60405180910390fd5b6105c08383610a31565b505050565b6105d66105d0610a29565b82610aea565b610615576040517f08c379a000000000000000000000000000000000000000000000000000000000815260040161060c9061234f565b60405180910390fd5b610620838383610b7f565b505050565b6106408383836040518060200160405280600081525061086c565b505050565b60008061065183610e79565b9050600073ffffffffffffffffffffffffffffffffffffffff168173ffffffffffffffffffffffffffffffffffffffff1614156106c3576040517f08c379a00000000000000000000000000000000000000000000000000000000081526004016106ba906123bb565b60405180910390fd5b80915050919050565b600760008154809291906106df9061240a565b91905055506106ef6007546108ce565b506106fc60075482610eb6565b61070882600754610f2a565b5050565b60008073ffffffffffffffffffffffffffffffffffffffff168273ffffffffffffffffffffffffffffffffffffffff16141561077d576040517f08c379a0000000000000000000000000000000000000000000000000000000008152600401610774906124c5565b60405180910390fd5b600360008373ffffffffffffffffffffffffffffffffffffffff1673ffffffffffffffffffffffffffffffffffffffff168152602001908152602001600020549050919050565b6060600180546107d390612187565b80601f01602080910402602001604051908101604052809291908181526020018280546107ff90612187565b801561084c5780601f106108215761010080835404028352916020019161084c565b820191906000526020600020905b81548152906001019060200180831161082f57829003601f168201915b5050505050905090565b610868610861610a29565b8383611148565b5050565b61087d610877610a29565b83610aea565b6108bc576040517f08c379a00000000000000000000000000000000000000000000000000000000081526004016108b39061234f565b60405180910390fd5b6108c8848484846112b5565b50505050565b60606108d982611311565b9050919050565b6000600560008473ffffffffffffffffffffffffffffffffffffffff1673ffffffffffffffffffffffffffffffffffffffff16815260200190815260200160002060008373ffffffffffffffffffffffffffffffffffffffff1673ffffffffffffffffffffffffffffffffffffffff16815260200190815260200160002060009054906101000a900460ff16905092915050565b60007f01ffc9a7000000000000000000000000000000000000000000000000000000007bffffffffffffffffffffffffffffffffffffffffffffffffffffffff1916827bffffffffffffffffffffffffffffffffffffffffffffffffffffffff1916149050919050565b6109e781611424565b610a26576040517f08c379a0000000000000000000000000000000000000000000000000000000008152600401610a1d906123bb565b60405180910390fd5b50565b600033905090565b816004600083815260200190815260200160002060006101000a81548173ffffffffffffffffffffffffffffffffffffffff021916908373ffffffffffffffffffffffffffffffffffffffff160217905550808273ffffffffffffffffffffffffffffffffffffffff16610aa483610645565b73ffffffffffffffffffffffffffffffffffffffff167f8c5be1e5ebec7d5bd14f71427d1e84f3dd0314c0f7b2291e5b200ac8c7c3b92560405160405180910390a45050565b600080610af683610645565b90508073ffffffffffffffffffffffffffffffffffffffff168473ffffffffffffffffffffffffffffffffffffffff161480610b385750610b3781856108e0565b5b80610b7657508373ffffffffffffffffffffffffffffffffffffffff16610b5e84610467565b73ffffffffffffffffffffffffffffffffffffffff16145b91505092915050565b8273ffffffffffffffffffffffffffffffffffffffff16610b9f82610645565b73ffffffffffffffffffffffffffffffffffffffff1614610bf5576040517f08c379a0000000000000000000000000000000000000000000000000000000008152600401610bec90612557565b60405180910390fd5b600073ffffffffffffffffffffffffffffffffffffffff168273ffffffffffffffffffffffffffffffffffffffff161415610c65576040517f08c379a0000000000000000000000000000000000000000000000000000000008152600401610c5c906125e9565b60405180910390fd5b610c728383836001611465565b8273ffffffffffffffffffffffffffffffffffffffff16610c9282610645565b73ffffffffffffffffffffffffffffffffffffffff1614610ce8576040517f08c379a0000000000000000000000000000000000000000000000000000000008152600401610cdf90612557565b60405180910390fd5b6004600082815260200190815260200160002060006101000a81549073ffffffffffffffffffffffffffffffffffffffff02191690556001600360008573ffffffffffffffffffffffffffffffffffffffff1673ffffffffffffffffffffffffffffffffffffffff168152602001908152602001600020600082825403925050819055506001600360008473ffffffffffffffffffffffffffffffffffffffff1673ffffffffffffffffffffffffffffffffffffffff16815260200190815260200160002060008282540192505081905550816002600083815260200190815260200160002060006101000a81548173ffffffffffffffffffffffffffffffffffffffff021916908373ffffffffffffffffffffffffffffffffffffffff160217905550808273ffffffffffffffffffffffffffffffffffffffff168473ffffffffffffffffffffffffffffffffffffffff167fddf252ad1be2c89b69c2b068fc378daa952ba7f163c4a11628f55a4df523b3ef60405160405180910390a4610e74838383600161158b565b505050565b60006002600083815260200190815260200160002060009054906101000a900473ffffffffffffffffffffffffffffffffffffffff169050919050565b610ebf82611424565b610efe576040517f08c379a0000000000000000000000000000000000000000000000000000000008152600401610ef59061267b565b60405180910390fd5b80600660008481526020019081526020016000209080519060200190610f259291906119f5565b505050565b600073ffffffffffffffffffffffffffffffffffffffff168273ffffffffffffffffffffffffffffffffffffffff161415610f9a576040517f08c379a0000000000000000000000000000000000000000000000000000000008152600401610f91906126e7565b60405180910390fd5b610fa381611424565b15610fe3576040517f08c379a0000000000000000000000000000000000000000000000000000000008152600401610fda90612753565b60405180910390fd5b610ff1600083836001611465565b610ffa81611424565b1561103a576040517f08c379a000000000000000000000000000000000000000000000000000000000815260040161103190612753565b60405180910390fd5b6001600360008473ffffffffffffffffffffffffffffffffffffffff1673ffffffffffffffffffffffffffffffffffffffff16815260200190815260200160002060008282540192505081905550816002600083815260200190815260200160002060006101000a81548173ffffffffffffffffffffffffffffffffffffffff021916908373ffffffffffffffffffffffffffffffffffffffff160217905550808273ffffffffffffffffffffffffffffffffffffffff16600073ffffffffffffffffffffffffffffffffffffffff167fddf252ad1be2c89b69c2b068fc378daa952ba7f163c4a11628f55a4df523b3ef60405160405180910390a461114460008383600161158b565b5050565b8173ffffffffffffffffffffffffffffffffffffffff168373ffffffffffffffffffffffffffffffffffffffff1614156111b7576040517f08c379a00000000000000000000000000000000000000000000000000000000081526004016111ae906127bf565b60405180910390fd5b80600560008573ffffffffffffffffffffffffffffffffffffffff1673ffffffffffffffffffffffffffffffffffffffff16815260200190815260200160002060008473ffffffffffffffffffffffffffffffffffffffff1673ffffffffffffffffffffffffffffffffffffffff16815260200190815260200160002060006101000a81548160ff0219169083151502179055508173ffffffffffffffffffffffffffffffffffffffff168373ffffffffffffffffffffffffffffffffffffffff167f17307eab39ab6107e8899845ad3d59bd9653f200f220920489ca2b5937696c31836040516112a89190611b4c565b60405180910390a3505050565b6112c0848484610b7f565b6112cc84848484611591565b61130b576040517f08c379a000000000000000000000000000000000000000000000000000000000815260040161130290612851565b60405180910390fd5b50505050565b606061131c826109de565b600060066000848152602001908152602001600020805461133c90612187565b80601f016020809104026020016040519081016040528092919081815260200182805461136890612187565b80156113b55780601f1061138a576101008083540402835291602001916113b5565b820191906000526020600020905b81548152906001019060200180831161139857829003601f168201915b5050505050905060006113c6611728565b90506000815114156113dc57819250505061141f565b6000825111156114115780826040516020016113f99291906128ad565b6040516020818303038152906040529250505061141f565b61141a8461173f565b925050505b919050565b60008073ffffffffffffffffffffffffffffffffffffffff1661144683610e79565b73ffffffffffffffffffffffffffffffffffffffff1614159050919050565b600181111561158557600073ffffffffffffffffffffffffffffffffffffffff168473ffffffffffffffffffffffffffffffffffffffff16146114f95780600360008673ffffffffffffffffffffffffffffffffffffffff1673ffffffffffffffffffffffffffffffffffffffff16815260200190815260200160002060008282546114f191906128d1565b925050819055505b600073ffffffffffffffffffffffffffffffffffffffff168373ffffffffffffffffffffffffffffffffffffffff16146115845780600360008573ffffffffffffffffffffffffffffffffffffffff1673ffffffffffffffffffffffffffffffffffffffff168152602001908152602001600020600082825461157c9190612905565b925050819055505b5b50505050565b50505050565b60006115b28473ffffffffffffffffffffffffffffffffffffffff166117a7565b1561171b578373ffffffffffffffffffffffffffffffffffffffff1663150b7a026115db610a29565b8786866040518563ffffffff1660e01b81526004016115fd94939291906129b0565b602060405180830381600087803b15801561161757600080fd5b505af192505050801561164857506040513d601f19601f820116820180604052508101906116459190612a11565b60015b6116cb573d8060008114611678576040519150601f19603f3d011682016040523d82523d6000602084013e61167d565b606091505b506000815114156116c3576040517f08c379a00000000000000000000000000000000000000000000000000000000081526004016116ba90612851565b60405180910390fd5b805181602001fd5b63150b7a0260e01b7bffffffffffffffffffffffffffffffffffffffffffffffffffffffff1916817bffffffffffffffffffffffffffffffffffffffffffffffffffffffff191614915050611720565b600190505b949350505050565b606060405180602001604052806000815250905090565b606061174a826109de565b6000611754611728565b90506000815111611774576040518060200160405280600081525061179f565b8061177e846117ca565b60405160200161178f9291906128ad565b6040516020818303038152906040525b915050919050565b6000808273ffffffffffffffffffffffffffffffffffffffff163b119050919050565b6060600060016117d9846118a2565b01905060008167ffffffffffffffff8111156117f8576117f7611daa565b5b6040519080825280601f01601f19166020018201604052801561182a5781602001600182028036833780820191505090505b509050600082602001820190505b600115611897578080600190039150507f3031323334353637383961626364656600000000000000000000000000000000600a86061a8153600a858161188157611880612a3e565b5b049450600085141561189257611897565b611838565b819350505050919050565b600080600090507a184f03e93ff9f4daa797ed6e38ed64bf6a1f0100000000000000008310611900577a184f03e93ff9f4daa797ed6e38ed64bf6a1f01000000000000000083816118f6576118f5612a3e565b5b0492506040810190505b6d04ee2d6d415b85acef8100000000831061193d576d04ee2d6d415b85acef8100000000838161193357611932612a3e565b5b0492506020810190505b662386f26fc10000831061196c57662386f26fc10000838161196257611961612a3e565b5b0492506010810190505b6305f5e1008310611995576305f5e100838161198b5761198a612a3e565b5b0492506008810190505b61271083106119ba5761271083816119b0576119af612a3e565b5b0492506004810190505b606483106119dd57606483816119d3576119d2612a3e565b5b0492506002810190505b600a83106119ec576001810190505b80915050919050565b828054611a0190612187565b90600052602060002090601f016020900481019282611a235760008555611a6a565b82601f10611a3c57805160ff1916838001178555611a6a565b82800160010185558215611a6a579182015b82811115611a69578251825591602001919060010190611a4e565b5b509050611a779190611a7b565b5090565b5b80821115611a94576000816000905550600101611a7c565b5090565b6000604051905090565b600080fd5b600080fd5b60007fffffffff0000000000000000000000000000000000000000000000000000000082169050919050565b611ae181611aac565b8114611aec57600080fd5b50565b600081359050611afe81611ad8565b92915050565b600060208284031215611b1a57611b19611aa2565b5b6000611b2884828501611aef565b91505092915050565b60008115159050919050565b611b4681611b31565b82525050565b6000602082019050611b616000830184611b3d565b92915050565b600081519050919050565b600082825260208201905092915050565b60005b83811015611ba1578082015181840152602081019050611b86565b83811115611bb0576000848401525b50505050565b6000601f19601f8301169050919050565b6000611bd282611b67565b611bdc8185611b72565b9350611bec818560208601611b83565b611bf581611bb6565b840191505092915050565b60006020820190508181036000830152611c1a8184611bc7565b905092915050565b6000819050919050565b611c3581611c22565b8114611c4057600080fd5b50565b600081359050611c5281611c2c565b92915050565b600060208284031215611c6e57611c6d611aa2565b5b6000611c7c84828501611c43565b91505092915050565b600073ffffffffffffffffffffffffffffffffffffffff82169050919050565b6000611cb082611c85565b9050919050565b611cc081611ca5565b82525050565b6000602082019050611cdb6000830184611cb7565b92915050565b611cea81611ca5565b8114611cf557600080fd5b50565b600081359050611d0781611ce1565b92915050565b60008060408385031215611d2457611d23611aa2565b5b6000611d3285828601611cf8565b9250506020611d4385828601611c43565b9150509250929050565b600080600060608486031215611d6657611d65611aa2565b5b6000611d7486828701611cf8565b9350506020611d8586828701611cf8565b9250506040611d9686828701611c43565b9150509250925092565b600080fd5b600080fd5b7f4e487b7100000000000000000000000000000000000000000000000000000000600052604160045260246000fd5b611de282611bb6565b810181811067ffffffffffffffff82111715611e0157611e00611daa565b5b80604052505050565b6000611e14611a98565b9050611e208282611dd9565b919050565b600067ffffffffffffffff821115611e4057611e3f611daa565b5b611e4982611bb6565b9050602081019050919050565b82818337600083830152505050565b6000611e78611e7384611e25565b611e0a565b905082815260208101848484011115611e9457611e93611da5565b5b611e9f848285611e56565b509392505050565b600082601f830112611ebc57611ebb611da0565b5b8135611ecc848260208601611e65565b91505092915050565b60008060408385031215611eec57611eeb611aa2565b5b6000611efa85828601611cf8565b925050602083013567ffffffffffffffff811115611f1b57611f1a611aa7565b5b611f2785828601611ea7565b9150509250929050565b600060208284031215611f4757611f46611aa2565b5b6000611f5584828501611cf8565b91505092915050565b611f6781611c22565b82525050565b6000602082019050611f826000830184611f5e565b92915050565b611f9181611b31565b8114611f9c57600080fd5b50565b600081359050611fae81611f88565b92915050565b60008060408385031215611fcb57611fca611aa2565b5b6000611fd985828601611cf8565b9250506020611fea85828601611f9f565b9150509250929050565b600067ffffffffffffffff82111561200f5761200e611daa565b5b61201882611bb6565b9050602081019050919050565b600061203861203384611ff4565b611e0a565b90508281526020810184848401111561205457612053611da5565b5b61205f848285611e56565b509392505050565b600082601f83011261207c5761207b611da0565b5b813561208c848260208601612025565b91505092915050565b600080600080608085870312156120af576120ae611aa2565b5b60006120bd87828801611cf8565b94505060206120ce87828801611cf8565b93505060406120df87828801611c43565b925050606085013567ffffffffffffffff811115612100576120ff611aa7565b5b61210c87828801612067565b91505092959194509250565b6000806040838503121561212f5761212e611aa2565b5b600061213d85828601611cf8565b925050602061214e85828601611cf8565b9150509250929050565b7f4e487b7100000000000000000000000000000000000000000000000000000000600052602260045260246000fd5b6000600282049050600182168061219f57607f821691505b602082108114156121b3576121b2612158565b5b50919050565b7f4552433732313a20617070726f76616c20746f2063757272656e74206f776e6560008201527f7200000000000000000000000000000000000000000000000000000000000000602082015250565b6000612215602183611b72565b9150612220826121b9565b604082019050919050565b6000602082019050818103600083015261224481612208565b9050919050565b7f4552433732313a20617070726f76652063616c6c6572206973206e6f7420746f60008201527f6b656e206f776e6572206f7220617070726f76656420666f7220616c6c000000602082015250565b60006122a7603d83611b72565b91506122b28261224b565b604082019050919050565b600060208201905081810360008301526122d68161229a565b9050919050565b7f4552433732313a2063616c6c6572206973206e6f7420746f6b656e206f776e6560008201527f72206f7220617070726f76656400000000000000000000000000000000000000602082015250565b6000612339602d83611b72565b9150612344826122dd565b604082019050919050565b600060208201905081810360008301526123688161232c565b9050919050565b7f4552433732313a20696e76616c696420746f6b656e2049440000000000000000600082015250565b60006123a5601883611b72565b91506123b08261236f565b602082019050919050565b600060208201905081810360008301526123d481612398565b9050919050565b7f4e487b7100000000000000000000000000000000000000000000000000000000600052601160045260246000fd5b600061241582611c22565b91507fffffffffffffffffffffffffffffffffffffffffffffffffffffffffffffffff821415612448576124476123db565b5b600182019050919050565b7f4552433732313a2061646472657373207a65726f206973206e6f74206120766160008201527f6c6964206f776e65720000000000000000000000000000000000000000000000602082015250565b60006124af602983611b72565b91506124ba82612453565b604082019050919050565b600060208201905081810360008301526124de816124a2565b9050919050565b7f4552433732313a207472616e736665722066726f6d20696e636f72726563742060008201527f6f776e6572000000000000000000000000000000000000000000000000000000602082015250565b6000612541602583611b72565b915061254c826124e5565b604082019050919050565b6000602082019050818103600083015261257081612534565b9050919050565b7f4552433732313a207472616e7366657220746f20746865207a65726f2061646460008201527f7265737300000000000000000000000000000000000000000000000000000000602082015250565b60006125d3602483611b72565b91506125de82612577565b604082019050919050565b60006020820190508181036000830152612602816125c6565b9050919050565b7f45524337323155524953746f726167653a2055524920736574206f66206e6f6e60008201527f6578697374656e7420746f6b656e000000000000000000000000000000000000602082015250565b6000612665602e83611b72565b915061267082612609565b604082019050919050565b6000602082019050818103600083015261269481612658565b9050919050565b7f4552433732313a206d696e7420746f20746865207a65726f2061646472657373600082015250565b60006126d1602083611b72565b91506126dc8261269b565b602082019050919050565b60006020820190508181036000830152612700816126c4565b9050919050565b7f4552433732313a20746f6b656e20616c7265616479206d696e74656400000000600082015250565b600061273d601c83611b72565b915061274882612707565b602082019050919050565b6000602082019050818103600083015261276c81612730565b9050919050565b7f4552433732313a20617070726f766520746f2063616c6c657200000000000000600082015250565b60006127a9601983611b72565b91506127b482612773565b602082019050919050565b600060208201905081810360008301526127d88161279c565b9050919050565b7f4552433732313a207472616e7366657220746f206e6f6e20455243373231526560008201527f63656976657220696d706c656d656e7465720000000000000000000000000000602082015250565b600061283b603283611b72565b9150612846826127df565b604082019050919050565b6000602082019050818103600083015261286a8161282e565b9050919050565b600081905092915050565b600061288782611b67565b6128918185612871565b93506128a1818560208601611b83565b80840191505092915050565b60006128b9828561287c565b91506128c5828461287c565b91508190509392505050565b60006128dc82611c22565b91506128e783611c22565b9250828210156128fa576128f96123db565b5b828203905092915050565b600061291082611c22565b915061291b83611c22565b9250827fffffffffffffffffffffffffffffffffffffffffffffffffffffffffffffffff038211156129505761294f6123db565b5b828201905092915050565b600081519050919050565b600082825260208201905092915050565b60006129828261295b565b61298c8185612966565b935061299c818560208601611b83565b6129a581611bb6565b840191505092915050565b60006080820190506129c56000830187611cb7565b6129d26020830186611cb7565b6129df6040830185611f5e565b81810360608301526129f18184612977565b905095945050505050565b600081519050612a0b81611ad8565b92915050565b600060208284031215612a2757612a26611aa2565b5b6000612a35848285016129fc565b91505092915050565b7f4e487b7100000000000000000000000000000000000000000000000000000000600052601260045260246000fdfea2646970667358221220f903282e76b8f150c9ae5860a6db7b3c4eae48e3ae774ab7c247417e36be1d0564736f6c63430008090033","opcodes":"PUSH1 0x80 PUSH1 0x40 MSTORE CALLVALUE DUP1 ISZERO PUSH3 0x11 JUMPI PUSH1 0x0 DUP1 REVERT JUMPDEST POP PUSH1 0x40 MLOAD DUP1 PUSH1 0x40 ADD PUSH1 0x40 MSTORE DUP1 PUSH1 0x5 DUP2 MSTORE PUSH1 0x20 ADD PUSH32 0x4E61747375000000000000000000000000000000000000000000000000000000 DUP2 MSTORE POP PUSH1 0x40 MLOAD DUP1 PUSH1 0x40 ADD PUSH1 0x40 MSTORE DUP1 PUSH1 0x5 DUP2 MSTORE PUSH1 0x20 ADD PUSH32 0x4E41545355000000000000000000000000000000000000000000000000000000 DUP2 MSTORE POP DUP2 PUSH1 0x0 SWAP1 DUP1 MLOAD SWAP1 PUSH1 0x20 ADD SWAP1 PUSH3 0x96 SWAP3 SWAP2 SWAP1 PUSH3 0xC0 JUMP JUMPDEST POP DUP1 PUSH1 0x1 SWAP1 DUP1 MLOAD SWAP1 PUSH1 0x20 ADD SWAP1 PUSH3 0xAF SWAP3 SWAP2 SWAP1 PUSH3 0xC0 JUMP JUMPDEST POP POP POP PUSH1 0x0 PUSH1 0x7 DUP2 SWAP1 SSTORE POP PUSH3 0x1D5 JUMP JUMPDEST DUP3 DUP1 SLOAD PUSH3 0xCE SWAP1 PUSH3 0x19F JUMP JUMPDEST SWAP1 PUSH1 0x0 MSTORE PUSH1 0x20 PUSH1 0x0 KECCAK256 SWAP1 PUSH1 0x1F ADD PUSH1 0x20 SWAP1 DIV DUP2 ADD SWAP3 DUP3 PUSH3 0xF2 JUMPI PUSH1 0x0 DUP6 SSTORE PUSH3 0x13E JUMP JUMPDEST DUP3 PUSH1 0x1F LT PUSH3 0x10D JUMPI DUP1 MLOAD PUSH1 0xFF NOT AND DUP4 DUP1 ADD OR DUP6 SSTORE PUSH3 0x13E JUMP JUMPDEST DUP3 DUP1 ADD PUSH1 0x1 ADD DUP6 SSTORE DUP3 ISZERO PUSH3 0x13E JUMPI SWAP2 DUP3 ADD JUMPDEST DUP3 DUP2 GT ISZERO PUSH3 0x13D JUMPI DUP3 MLOAD DUP3 SSTORE SWAP2 PUSH1 0x20 ADD SWAP2 SWAP1 PUSH1 0x1 ADD SWAP1 PUSH3 0x120 JUMP JUMPDEST JUMPDEST POP SWAP1 POP PUSH3 0x14D SWAP2 SWAP1 PUSH3 0x151 JUMP JUMPDEST POP SWAP1 JUMP JUMPDEST JUMPDEST DUP1 DUP3 GT ISZERO PUSH3 0x16C JUMPI PUSH1 0x0 DUP2 PUSH1 0x0 SWAP1 SSTORE POP PUSH1 0x1 ADD PUSH3 0x152 JUMP JUMPDEST POP SWAP1 JUMP JUMPDEST PUSH32 0x4E487B7100000000000000000000000000000000000000000000000000000000 PUSH1 0x0 MSTORE PUSH1 0x22 PUSH1 0x4 MSTORE PUSH1 0x24 PUSH1 0x0 REVERT JUMPDEST PUSH1 0x0 PUSH1 0x2 DUP3 DIV SWAP1 POP PUSH1 0x1 DUP3 AND DUP1 PUSH3 0x1B8 JUMPI PUSH1 0x7F DUP3 AND SWAP2 POP JUMPDEST PUSH1 0x20 DUP3 LT DUP2 EQ ISZERO PUSH3 0x1CF JUMPI PUSH3 0x1CE PUSH3 0x170 JUMP JUMPDEST JUMPDEST POP SWAP2 SWAP1 POP JUMP JUMPDEST PUSH2 0x2AA3 DUP1 PUSH3 0x1E5 PUSH1 0x0 CODECOPY PUSH1 0x0 RETURN INVALID PUSH1 0x80 PUSH1 0x40 MSTORE CALLVALUE DUP1 ISZERO PUSH2 0x10 JUMPI PUSH1 0x0 DUP1 REVERT JUMPDEST POP PUSH1 0x4 CALLDATASIZE LT PUSH2 0xEA JUMPI PUSH1 0x0 CALLDATALOAD PUSH1 0xE0 SHR DUP1 PUSH4 0x68F81C31 GT PUSH2 0x8C JUMPI DUP1 PUSH4 0xA22CB465 GT PUSH2 0x66 JUMPI DUP1 PUSH4 0xA22CB465 EQ PUSH2 0x25B JUMPI DUP1 PUSH4 0xB88D4FDE EQ PUSH2 0x277 JUMPI DUP1 PUSH4 0xC87B56DD EQ PUSH2 0x293 JUMPI DUP1 PUSH4 0xE985E9C5 EQ PUSH2 0x2C3 JUMPI PUSH2 0xEA JUMP JUMPDEST DUP1 PUSH4 0x68F81C31 EQ PUSH2 0x1F1 JUMPI DUP1 PUSH4 0x70A08231 EQ PUSH2 0x20D JUMPI DUP1 PUSH4 0x95D89B41 EQ PUSH2 0x23D JUMPI PUSH2 0xEA JUMP JUMPDEST DUP1 PUSH4 0x95EA7B3 GT PUSH2 0xC8 JUMPI DUP1 PUSH4 0x95EA7B3 EQ PUSH2 0x16D JUMPI DUP1 PUSH4 0x23B872DD EQ PUSH2 0x189 JUMPI DUP1 PUSH4 0x42842E0E EQ PUSH2 0x1A5 JUMPI DUP1 PUSH4 0x6352211E EQ PUSH2 0x1C1 JUMPI PUSH2 0xEA JUMP JUMPDEST DUP1 PUSH4 0x1FFC9A7 EQ PUSH2 0xEF JUMPI DUP1 PUSH4 0x6FDDE03 EQ PUSH2 0x11F JUMPI DUP1 PUSH4 0x81812FC EQ PUSH2 0x13D JUMPI JUMPDEST PUSH1 0x0 DUP1 REVERT JUMPDEST PUSH2 0x109 PUSH1 0x4 DUP1 CALLDATASIZE SUB DUP2 ADD SWAP1 PUSH2 0x104 SWAP2 SWAP1 PUSH2 0x1B04 JUMP JUMPDEST PUSH2 0x2F3 JUMP JUMPDEST PUSH1 0x40 MLOAD PUSH2 0x116 SWAP2 SWAP1 PUSH2 0x1B4C JUMP JUMPDEST PUSH1 0x40 MLOAD DUP1 SWAP2 SUB SWAP1 RETURN JUMPDEST PUSH2 0x127 PUSH2 0x3D5 JUMP JUMPDEST PUSH1 0x40 MLOAD PUSH2 0x134 SWAP2 SWAP1 PUSH2 0x1C00 JUMP JUMPDEST PUSH1 0x40 MLOAD DUP1 SWAP2 SUB SWAP1 RETURN JUMPDEST PUSH2 0x157 PUSH1 0x4 DUP1 CALLDATASIZE SUB DUP2 ADD SWAP1 PUSH2 0x152 SWAP2 SWAP1 PUSH2 0x1C58 JUMP JUMPDEST PUSH2 0x467 JUMP JUMPDEST PUSH1 0x40 MLOAD PUSH2 0x164 SWAP2 SWAP1 PUSH2 0x1CC6 JUMP JUMPDEST PUSH1 0x40 MLOAD DUP1 SWAP2 SUB SWAP1 RETURN JUMPDEST PUSH2 0x187 PUSH1 0x4 DUP1 CALLDATASIZE SUB DUP2 ADD SWAP1 PUSH2 0x182 SWAP2 SWAP1 PUSH2 0x1D0D JUMP JUMPDEST PUSH2 0x4AD JUMP JUMPDEST STOP JUMPDEST PUSH2 0x1A3 PUSH1 0x4 DUP1 CALLDATASIZE SUB DUP2 ADD SWAP1 PUSH2 0x19E SWAP2 SWAP1 PUSH2 0x1D4D JUMP JUMPDEST PUSH2 0x5C5 JUMP JUMPDEST STOP JUMPDEST PUSH2 0x1BF PUSH1 0x4 DUP1 CALLDATASIZE SUB DUP2 ADD SWAP1 PUSH2 0x1BA SWAP2 SWAP1 PUSH2 0x1D4D JUMP JUMPDEST PUSH2 0x625 JUMP JUMPDEST STOP JUMPDEST PUSH2 0x1DB PUSH1 0x4 DUP1 CALLDATASIZE SUB DUP2 ADD SWAP1 PUSH2 0x1D6 SWAP2 SWAP1 PUSH2 0x1C58 JUMP JUMPDEST PUSH2 0x645 JUMP JUMPDEST PUSH1 0x40 MLOAD PUSH2 0x1E8 SWAP2 SWAP1 PUSH2 0x1CC6 JUMP JUMPDEST PUSH1 0x40 MLOAD DUP1 SWAP2 SUB SWAP1 RETURN JUMPDEST PUSH2 0x20B PUSH1 0x4 DUP1 CALLDATASIZE SUB DUP2 ADD SWAP1 PUSH2 0x206 SWAP2 SWAP1 PUSH2 0x1ED5 JUMP JUMPDEST PUSH2 0x6CC JUMP JUMPDEST STOP JUMPDEST PUSH2 0x227 PUSH1 0x4 DUP1 CALLDATASIZE SUB DUP2 ADD SWAP1 PUSH2 0x222 SWAP2 SWAP1 PUSH2 0x1F31 JUMP JUMPDEST PUSH2 0x70C JUMP JUMPDEST PUSH1 0x40 MLOAD PUSH2 0x234 SWAP2 SWAP1 PUSH2 0x1F6D JUMP JUMPDEST PUSH1 0x40 MLOAD DUP1 SWAP2 SUB SWAP1 RETURN JUMPDEST PUSH2 0x245 PUSH2 0x7C4 JUMP JUMPDEST PUSH1 0x40 MLOAD PUSH2 0x252 SWAP2 SWAP1 PUSH2 0x1C00 JUMP JUMPDEST PUSH1 0x40 MLOAD DUP1 SWAP2 SUB SWAP1 RETURN JUMPDEST PUSH2 0x275 PUSH1 0x4 DUP1 CALLDATASIZE SUB DUP2 ADD SWAP1 PUSH2 0x270 SWAP2 SWAP1 PUSH2 0x1FB4 JUMP JUMPDEST PUSH2 0x856 JUMP JUMPDEST STOP JUMPDEST PUSH2 0x291 PUSH1 0x4 DUP1 CALLDATASIZE SUB DUP2 ADD SWAP1 PUSH2 0x28C SWAP2 SWAP1 PUSH2 0x2095 JUMP JUMPDEST PUSH2 0x86C JUMP JUMPDEST STOP JUMPDEST PUSH2 0x2AD PUSH1 0x4 DUP1 CALLDATASIZE SUB DUP2 ADD SWAP1 PUSH2 0x2A8 SWAP2 SWAP1 PUSH2 0x1C58 JUMP JUMPDEST PUSH2 0x8CE JUMP JUMPDEST PUSH1 0x40 MLOAD PUSH2 0x2BA SWAP2 SWAP1 PUSH2 0x1C00 JUMP JUMPDEST PUSH1 0x40 MLOAD DUP1 SWAP2 SUB SWAP1 RETURN JUMPDEST PUSH2 0x2DD PUSH1 0x4 DUP1 CALLDATASIZE SUB DUP2 ADD SWAP1 PUSH2 0x2D8 SWAP2 SWAP1 PUSH2 0x2118 JUMP JUMPDEST PUSH2 0x8E0 JUMP JUMPDEST PUSH1 0x40 MLOAD PUSH2 0x2EA SWAP2 SWAP1 PUSH2 0x1B4C JUMP JUMPDEST PUSH1 0x40 MLOAD DUP1 SWAP2 SUB SWAP1 RETURN JUMPDEST PUSH1 0x0 PUSH32 0x80AC58CD00000000000000000000000000000000000000000000000000000000 PUSH28 0xFFFFFFFFFFFFFFFFFFFFFFFFFFFFFFFFFFFFFFFFFFFFFFFFFFFFFFFF NOT AND DUP3 PUSH28 0xFFFFFFFFFFFFFFFFFFFFFFFFFFFFFFFFFFFFFFFFFFFFFFFFFFFFFFFF NOT AND EQ DUP1 PUSH2 0x3BE JUMPI POP PUSH32 0x5B5E139F00000000000000000000000000000000000000000000000000000000 PUSH28 0xFFFFFFFFFFFFFFFFFFFFFFFFFFFFFFFFFFFFFFFFFFFFFFFFFFFFFFFF NOT AND DUP3 PUSH28 0xFFFFFFFFFFFFFFFFFFFFFFFFFFFFFFFFFFFFFFFFFFFFFFFFFFFFFFFF NOT AND EQ JUMPDEST DUP1 PUSH2 0x3CE JUMPI POP PUSH2 0x3CD DUP3 PUSH2 0x974 JUMP JUMPDEST JUMPDEST SWAP1 POP SWAP2 SWAP1 POP JUMP JUMPDEST PUSH1 0x60 PUSH1 0x0 DUP1 SLOAD PUSH2 0x3E4 SWAP1 PUSH2 0x2187 JUMP JUMPDEST DUP1 PUSH1 0x1F ADD PUSH1 0x20 DUP1 SWAP2 DIV MUL PUSH1 0x20 ADD PUSH1 0x40 MLOAD SWAP1 DUP2 ADD PUSH1 0x40 MSTORE DUP1 SWAP3 SWAP2 SWAP1 DUP2 DUP2 MSTORE PUSH1 0x20 ADD DUP3 DUP1 SLOAD PUSH2 0x410 SWAP1 PUSH2 0x2187 JUMP JUMPDEST DUP1 ISZERO PUSH2 0x45D JUMPI DUP1 PUSH1 0x1F LT PUSH2 0x432 JUMPI PUSH2 0x100 DUP1 DUP4 SLOAD DIV MUL DUP4 MSTORE SWAP2 PUSH1 0x20 ADD SWAP2 PUSH2 0x45D JUMP JUMPDEST DUP3 ADD SWAP2 SWAP1 PUSH1 0x0 MSTORE PUSH1 0x20 PUSH1 0x0 KECCAK256 SWAP1 JUMPDEST DUP2 SLOAD DUP2 MSTORE SWAP1 PUSH1 0x1 ADD SWAP1 PUSH1 0x20 ADD DUP1 DUP4 GT PUSH2 0x440 JUMPI DUP3 SWAP1 SUB PUSH1 0x1F AND DUP3 ADD SWAP2 JUMPDEST POP POP POP POP POP SWAP1 POP SWAP1 JUMP JUMPDEST PUSH1 0x0 PUSH2 0x472 DUP3 PUSH2 0x9DE JUMP JUMPDEST PUSH1 0x4 PUSH1 0x0 DUP4 DUP2 MSTORE PUSH1 0x20 ADD SWAP1 DUP2 MSTORE PUSH1 0x20 ADD PUSH1 0x0 KECCAK256 PUSH1 0x0 SWAP1 SLOAD SWAP1 PUSH2 0x100 EXP SWAP1 DIV PUSH20 0xFFFFFFFFFFFFFFFFFFFFFFFFFFFFFFFFFFFFFFFF AND SWAP1 POP SWAP2 SWAP1 POP JUMP JUMPDEST PUSH1 0x0 PUSH2 0x4B8 DUP3 PUSH2 0x645 JUMP JUMPDEST SWAP1 POP DUP1 PUSH20 0xFFFFFFFFFFFFFFFFFFFFFFFFFFFFFFFFFFFFFFFF AND DUP4 PUSH20 0xFFFFFFFFFFFFFFFFFFFFFFFFFFFFFFFFFFFFFFFF AND EQ ISZERO PUSH2 0x529 JUMPI PUSH1 0x40 MLOAD PUSH32 0x8C379A000000000000000000000000000000000000000000000000000000000 DUP2 MSTORE PUSH1 0x4 ADD PUSH2 0x520 SWAP1 PUSH2 0x222B JUMP JUMPDEST PUSH1 0x40 MLOAD DUP1 SWAP2 SUB SWAP1 REVERT JUMPDEST DUP1 PUSH20 0xFFFFFFFFFFFFFFFFFFFFFFFFFFFFFFFFFFFFFFFF AND PUSH2 0x548 PUSH2 0xA29 JUMP JUMPDEST PUSH20 0xFFFFFFFFFFFFFFFFFFFFFFFFFFFFFFFFFFFFFFFF AND EQ DUP1 PUSH2 0x577 JUMPI POP PUSH2 0x576 DUP2 PUSH2 0x571 PUSH2 0xA29 JUMP JUMPDEST PUSH2 0x8E0 JUMP JUMPDEST JUMPDEST PUSH2 0x5B6 JUMPI PUSH1 0x40 MLOAD PUSH32 0x8C379A000000000000000000000000000000000000000000000000000000000 DUP2 MSTORE PUSH1 0x4 ADD PUSH2 0x5AD SWAP1 PUSH2 0x22BD JUMP JUMPDEST PUSH1 0x40 MLOAD DUP1 SWAP2 SUB SWAP1 REVERT JUMPDEST PUSH2 0x5C0 DUP4 DUP4 PUSH2 0xA31 JUMP JUMPDEST POP POP POP JUMP JUMPDEST PUSH2 0x5D6 PUSH2 0x5D0 PUSH2 0xA29 JUMP JUMPDEST DUP3 PUSH2 0xAEA JUMP JUMPDEST PUSH2 0x615 JUMPI PUSH1 0x40 MLOAD PUSH32 0x8C379A000000000000000000000000000000000000000000000000000000000 DUP2 MSTORE PUSH1 0x4 ADD PUSH2 0x60C SWAP1 PUSH2 0x234F JUMP JUMPDEST PUSH1 0x40 MLOAD DUP1 SWAP2 SUB SWAP1 REVERT JUMPDEST PUSH2 0x620 DUP4 DUP4 DUP4 PUSH2 0xB7F JUMP JUMPDEST POP POP POP JUMP JUMPDEST PUSH2 0x640 DUP4 DUP4 DUP4 PUSH1 0x40 MLOAD DUP1 PUSH1 0x20 ADD PUSH1 0x40 MSTORE DUP1 PUSH1 0x0 DUP2 MSTORE POP PUSH2 0x86C JUMP JUMPDEST POP POP POP JUMP JUMPDEST PUSH1 0x0 DUP1 PUSH2 0x651 DUP4 PUSH2 0xE79 JUMP JUMPDEST SWAP1 POP PUSH1 0x0 PUSH20 0xFFFFFFFFFFFFFFFFFFFFFFFFFFFFFFFFFFFFFFFF AND DUP2 PUSH20 0xFFFFFFFFFFFFFFFFFFFFFFFFFFFFFFFFFFFFFFFF AND EQ ISZERO PUSH2 0x6C3 JUMPI PUSH1 0x40 MLOAD PUSH32 0x8C379A000000000000000000000000000000000000000000000000000000000 DUP2 MSTORE PUSH1 0x4 ADD PUSH2 0x6BA SWAP1 PUSH2 0x23BB JUMP JUMPDEST PUSH1 0x40 MLOAD DUP1 SWAP2 SUB SWAP1 REVERT JUMPDEST DUP1 SWAP2 POP POP SWAP2 SWAP1 POP JUMP JUMPDEST PUSH1 0x7 PUSH1 0x0 DUP2 SLOAD DUP1 SWAP3 SWAP2 SWAP1 PUSH2 0x6DF SWAP1 PUSH2 0x240A JUMP JUMPDEST SWAP2 SWAP1 POP SSTORE POP PUSH2 0x6EF PUSH1 0x7 SLOAD PUSH2 0x8CE JUMP JUMPDEST POP PUSH2 0x6FC PUSH1 0x7 SLOAD DUP3 PUSH2 0xEB6 JUMP JUMPDEST PUSH2 0x708 DUP3 PUSH1 0x7 SLOAD PUSH2 0xF2A JUMP JUMPDEST POP POP JUMP JUMPDEST PUSH1 0x0 DUP1 PUSH20 0xFFFFFFFFFFFFFFFFFFFFFFFFFFFFFFFFFFFFFFFF AND DUP3 PUSH20 0xFFFFFFFFFFFFFFFFFFFFFFFFFFFFFFFFFFFFFFFF AND EQ ISZERO PUSH2 0x77D JUMPI PUSH1 0x40 MLOAD PUSH32 0x8C379A000000000000000000000000000000000000000000000000000000000 DUP2 MSTORE PUSH1 0x4 ADD PUSH2 0x774 SWAP1 PUSH2 0x24C5 JUMP JUMPDEST PUSH1 0x40 MLOAD DUP1 SWAP2 SUB SWAP1 REVERT JUMPDEST PUSH1 0x3 PUSH1 0x0 DUP4 PUSH20 0xFFFFFFFFFFFFFFFFFFFFFFFFFFFFFFFFFFFFFFFF AND PUSH20 0xFFFFFFFFFFFFFFFFFFFFFFFFFFFFFFFFFFFFFFFF AND DUP2 MSTORE PUSH1 0x20 ADD SWAP1 DUP2 MSTORE PUSH1 0x20 ADD PUSH1 0x0 KECCAK256 SLOAD SWAP1 POP SWAP2 SWAP1 POP JUMP JUMPDEST PUSH1 0x60 PUSH1 0x1 DUP1 SLOAD PUSH2 0x7D3 SWAP1 PUSH2 0x2187 JUMP JUMPDEST DUP1 PUSH1 0x1F ADD PUSH1 0x20 DUP1 SWAP2 DIV MUL PUSH1 0x20 ADD PUSH1 0x40 MLOAD SWAP1 DUP2 ADD PUSH1 0x40 MSTORE DUP1 SWAP3 SWAP2 SWAP1 DUP2 DUP2 MSTORE PUSH1 0x20 ADD DUP3 DUP1 SLOAD PUSH2 0x7FF SWAP1 PUSH2 0x2187 JUMP JUMPDEST DUP1 ISZERO PUSH2 0x84C JUMPI DUP1 PUSH1 0x1F LT PUSH2 0x821 JUMPI PUSH2 0x100 DUP1 DUP4 SLOAD DIV MUL DUP4 MSTORE SWAP2 PUSH1 0x20 ADD SWAP2 PUSH2 0x84C JUMP JUMPDEST DUP3 ADD SWAP2 SWAP1 PUSH1 0x0 MSTORE PUSH1 0x20 PUSH1 0x0 KECCAK256 SWAP1 JUMPDEST DUP2 SLOAD DUP2 MSTORE SWAP1 PUSH1 0x1 ADD SWAP1 PUSH1 0x20 ADD DUP1 DUP4 GT PUSH2 0x82F JUMPI DUP3 SWAP1 SUB PUSH1 0x1F AND DUP3 ADD SWAP2 JUMPDEST POP POP POP POP POP SWAP1 POP SWAP1 JUMP JUMPDEST PUSH2 0x868 PUSH2 0x861 PUSH2 0xA29 JUMP JUMPDEST DUP4 DUP4 PUSH2 0x1148 JUMP JUMPDEST POP POP JUMP JUMPDEST PUSH2 0x87D PUSH2 0x877 PUSH2 0xA29 JUMP JUMPDEST DUP4 PUSH2 0xAEA JUMP JUMPDEST PUSH2 0x8BC JUMPI PUSH1 0x40 MLOAD PUSH32 0x8C379A000000000000000000000000000000000000000000000000000000000 DUP2 MSTORE PUSH1 0x4 ADD PUSH2 0x8B3 SWAP1 PUSH2 0x234F JUMP JUMPDEST PUSH1 0x40 MLOAD DUP1 SWAP2 SUB SWAP1 REVERT JUMPDEST PUSH2 0x8C8 DUP5 DUP5 DUP5 DUP5 PUSH2 0x12B5 JUMP JUMPDEST POP POP POP POP JUMP JUMPDEST PUSH1 0x60 PUSH2 0x8D9 DUP3 PUSH2 0x1311 JUMP JUMPDEST SWAP1 POP SWAP2 SWAP1 POP JUMP JUMPDEST PUSH1 0x0 PUSH1 0x5 PUSH1 0x0 DUP5 PUSH20 0xFFFFFFFFFFFFFFFFFFFFFFFFFFFFFFFFFFFFFFFF AND PUSH20 0xFFFFFFFFFFFFFFFFFFFFFFFFFFFFFFFFFFFFFFFF AND DUP2 MSTORE PUSH1 0x20 ADD SWAP1 DUP2 MSTORE PUSH1 0x20 ADD PUSH1 0x0 KECCAK256 PUSH1 0x0 DUP4 PUSH20 0xFFFFFFFFFFFFFFFFFFFFFFFFFFFFFFFFFFFFFFFF AND PUSH20 0xFFFFFFFFFFFFFFFFFFFFFFFFFFFFFFFFFFFFFFFF AND DUP2 MSTORE PUSH1 0x20 ADD SWAP1 DUP2 MSTORE PUSH1 0x20 ADD PUSH1 0x0 KECCAK256 PUSH1 0x0 SWAP1 SLOAD SWAP1 PUSH2 0x100 EXP SWAP1 DIV PUSH1 0xFF AND SWAP1 POP SWAP3 SWAP2 POP POP JUMP JUMPDEST PUSH1 0x0 PUSH32 0x1FFC9A700000000000000000000000000000000000000000000000000000000 PUSH28 0xFFFFFFFFFFFFFFFFFFFFFFFFFFFFFFFFFFFFFFFFFFFFFFFFFFFFFFFF NOT AND DUP3 PUSH28 0xFFFFFFFFFFFFFFFFFFFFFFFFFFFFFFFFFFFFFFFFFFFFFFFFFFFFFFFF NOT AND EQ SWAP1 POP SWAP2 SWAP1 POP JUMP JUMPDEST PUSH2 0x9E7 DUP2 PUSH2 0x1424 JUMP JUMPDEST PUSH2 0xA26 JUMPI PUSH1 0x40 MLOAD PUSH32 0x8C379A000000000000000000000000000000000000000000000000000000000 DUP2 MSTORE PUSH1 0x4 ADD PUSH2 0xA1D SWAP1 PUSH2 0x23BB JUMP JUMPDEST PUSH1 0x40 MLOAD DUP1 SWAP2 SUB SWAP1 REVERT JUMPDEST POP JUMP JUMPDEST PUSH1 0x0 CALLER SWAP1 POP SWAP1 JUMP JUMPDEST DUP2 PUSH1 0x4 PUSH1 0x0 DUP4 DUP2 MSTORE PUSH1 0x20 ADD SWAP1 DUP2 MSTORE PUSH1 0x20 ADD PUSH1 0x0 KECCAK256 PUSH1 0x0 PUSH2 0x100 EXP DUP2 SLOAD DUP2 PUSH20 0xFFFFFFFFFFFFFFFFFFFFFFFFFFFFFFFFFFFFFFFF MUL NOT AND SWAP1 DUP4 PUSH20 0xFFFFFFFFFFFFFFFFFFFFFFFFFFFFFFFFFFFFFFFF AND MUL OR SWAP1 SSTORE POP DUP1 DUP3 PUSH20 0xFFFFFFFFFFFFFFFFFFFFFFFFFFFFFFFFFFFFFFFF AND PUSH2 0xAA4 DUP4 PUSH2 0x645 JUMP JUMPDEST PUSH20 0xFFFFFFFFFFFFFFFFFFFFFFFFFFFFFFFFFFFFFFFF AND PUSH32 0x8C5BE1E5EBEC7D5BD14F71427D1E84F3DD0314C0F7B2291E5B200AC8C7C3B925 PUSH1 0x40 MLOAD PUSH1 0x40 MLOAD DUP1 SWAP2 SUB SWAP1 LOG4 POP POP JUMP JUMPDEST PUSH1 0x0 DUP1 PUSH2 0xAF6 DUP4 PUSH2 0x645 JUMP JUMPDEST SWAP1 POP DUP1 PUSH20 0xFFFFFFFFFFFFFFFFFFFFFFFFFFFFFFFFFFFFFFFF AND DUP5 PUSH20 0xFFFFFFFFFFFFFFFFFFFFFFFFFFFFFFFFFFFFFFFF AND EQ DUP1 PUSH2 0xB38 JUMPI POP PUSH2 0xB37 DUP2 DUP6 PUSH2 0x8E0 JUMP JUMPDEST JUMPDEST DUP1 PUSH2 0xB76 JUMPI POP DUP4 PUSH20 0xFFFFFFFFFFFFFFFFFFFFFFFFFFFFFFFFFFFFFFFF AND PUSH2 0xB5E DUP5 PUSH2 0x467 JUMP JUMPDEST PUSH20 0xFFFFFFFFFFFFFFFFFFFFFFFFFFFFFFFFFFFFFFFF AND EQ JUMPDEST SWAP2 POP POP SWAP3 SWAP2 POP POP JUMP JUMPDEST DUP3 PUSH20 0xFFFFFFFFFFFFFFFFFFFFFFFFFFFFFFFFFFFFFFFF AND PUSH2 0xB9F DUP3 PUSH2 0x645 JUMP JUMPDEST PUSH20 0xFFFFFFFFFFFFFFFFFFFFFFFFFFFFFFFFFFFFFFFF AND EQ PUSH2 0xBF5 JUMPI PUSH1 0x40 MLOAD PUSH32 0x8C379A000000000000000000000000000000000000000000000000000000000 DUP2 MSTORE PUSH1 0x4 ADD PUSH2 0xBEC SWAP1 PUSH2 0x2557 JUMP JUMPDEST PUSH1 0x40 MLOAD DUP1 SWAP2 SUB SWAP1 REVERT JUMPDEST PUSH1 0x0 PUSH20 0xFFFFFFFFFFFFFFFFFFFFFFFFFFFFFFFFFFFFFFFF AND DUP3 PUSH20 0xFFFFFFFFFFFFFFFFFFFFFFFFFFFFFFFFFFFFFFFF AND EQ ISZERO PUSH2 0xC65 JUMPI PUSH1 0x40 MLOAD PUSH32 0x8C379A000000000000000000000000000000000000000000000000000000000 DUP2 MSTORE PUSH1 0x4 ADD PUSH2 0xC5C SWAP1 PUSH2 0x25E9 JUMP JUMPDEST PUSH1 0x40 MLOAD DUP1 SWAP2 SUB SWAP1 REVERT JUMPDEST PUSH2 0xC72 DUP4 DUP4 DUP4 PUSH1 0x1 PUSH2 0x1465 JUMP JUMPDEST DUP3 PUSH20 0xFFFFFFFFFFFFFFFFFFFFFFFFFFFFFFFFFFFFFFFF AND PUSH2 0xC92 DUP3 PUSH2 0x645 JUMP JUMPDEST PUSH20 0xFFFFFFFFFFFFFFFFFFFFFFFFFFFFFFFFFFFFFFFF AND EQ PUSH2 0xCE8 JUMPI PUSH1 0x40 MLOAD PUSH32 0x8C379A000000000000000000000000000000000000000000000000000000000 DUP2 MSTORE PUSH1 0x4 ADD PUSH2 0xCDF SWAP1 PUSH2 0x2557 JUMP JUMPDEST PUSH1 0x40 MLOAD DUP1 SWAP2 SUB SWAP1 REVERT JUMPDEST PUSH1 0x4 PUSH1 0x0 DUP3 DUP2 MSTORE PUSH1 0x20 ADD SWAP1 DUP2 MSTORE PUSH1 0x20 ADD PUSH1 0x0 KECCAK256 PUSH1 0x0 PUSH2 0x100 EXP DUP2 SLOAD SWAP1 PUSH20 0xFFFFFFFFFFFFFFFFFFFFFFFFFFFFFFFFFFFFFFFF MUL NOT AND SWAP1 SSTORE PUSH1 0x1 PUSH1 0x3 PUSH1 0x0 DUP6 PUSH20 0xFFFFFFFFFFFFFFFFFFFFFFFFFFFFFFFFFFFFFFFF AND PUSH20 0xFFFFFFFFFFFFFFFFFFFFFFFFFFFFFFFFFFFFFFFF AND DUP2 MSTORE PUSH1 0x20 ADD SWAP1 DUP2 MSTORE PUSH1 0x20 ADD PUSH1 0x0 KECCAK256 PUSH1 0x0 DUP3 DUP3 SLOAD SUB SWAP3 POP POP DUP2 SWAP1 SSTORE POP PUSH1 0x1 PUSH1 0x3 PUSH1 0x0 DUP5 PUSH20 0xFFFFFFFFFFFFFFFFFFFFFFFFFFFFFFFFFFFFFFFF AND PUSH20 0xFFFFFFFFFFFFFFFFFFFFFFFFFFFFFFFFFFFFFFFF AND DUP2 MSTORE PUSH1 0x20 ADD SWAP1 DUP2 MSTORE PUSH1 0x20 ADD PUSH1 0x0 KECCAK256 PUSH1 0x0 DUP3 DUP3 SLOAD ADD SWAP3 POP POP DUP2 SWAP1 SSTORE POP DUP2 PUSH1 0x2 PUSH1 0x0 DUP4 DUP2 MSTORE PUSH1 0x20 ADD SWAP1 DUP2 MSTORE PUSH1 0x20 ADD PUSH1 0x0 KECCAK256 PUSH1 0x0 PUSH2 0x100 EXP DUP2 SLOAD DUP2 PUSH20 0xFFFFFFFFFFFFFFFFFFFFFFFFFFFFFFFFFFFFFFFF MUL NOT AND SWAP1 DUP4 PUSH20 0xFFFFFFFFFFFFFFFFFFFFFFFFFFFFFFFFFFFFFFFF AND MUL OR SWAP1 SSTORE POP DUP1 DUP3 PUSH20 0xFFFFFFFFFFFFFFFFFFFFFFFFFFFFFFFFFFFFFFFF AND DUP5 PUSH20 0xFFFFFFFFFFFFFFFFFFFFFFFFFFFFFFFFFFFFFFFF AND PUSH32 0xDDF252AD1BE2C89B69C2B068FC378DAA952BA7F163C4A11628F55A4DF523B3EF PUSH1 0x40 MLOAD PUSH1 0x40 MLOAD DUP1 SWAP2 SUB SWAP1 LOG4 PUSH2 0xE74 DUP4 DUP4 DUP4 PUSH1 0x1 PUSH2 0x158B JUMP JUMPDEST POP POP POP JUMP JUMPDEST PUSH1 0x0 PUSH1 0x2 PUSH1 0x0 DUP4 DUP2 MSTORE PUSH1 0x20 ADD SWAP1 DUP2 MSTORE PUSH1 0x20 ADD PUSH1 0x0 KECCAK256 PUSH1 0x0 SWAP1 SLOAD SWAP1 PUSH2 0x100 EXP SWAP1 DIV PUSH20 0xFFFFFFFFFFFFFFFFFFFFFFFFFFFFFFFFFFFFFFFF AND SWAP1 POP SWAP2 SWAP1 POP JUMP JUMPDEST PUSH2 0xEBF DUP3 PUSH2 0x1424 JUMP JUMPDEST PUSH2 0xEFE JUMPI PUSH1 0x40 MLOAD PUSH32 0x8C379A000000000000000000000000000000000000000000000000000000000 DUP2 MSTORE PUSH1 0x4 ADD PUSH2 0xEF5 SWAP1 PUSH2 0x267B JUMP JUMPDEST PUSH1 0x40 MLOAD DUP1 SWAP2 SUB SWAP1 REVERT JUMPDEST DUP1 PUSH1 0x6 PUSH1 0x0 DUP5 DUP2 MSTORE PUSH1 0x20 ADD SWAP1 DUP2 MSTORE PUSH1 0x20 ADD PUSH1 0x0 KECCAK256 SWAP1 DUP1 MLOAD SWAP1 PUSH1 0x20 ADD SWAP1 PUSH2 0xF25 SWAP3 SWAP2 SWAP1 PUSH2 0x19F5 JUMP JUMPDEST POP POP POP JUMP JUMPDEST PUSH1 0x0 PUSH20 0xFFFFFFFFFFFFFFFFFFFFFFFFFFFFFFFFFFFFFFFF AND DUP3 PUSH20 0xFFFFFFFFFFFFFFFFFFFFFFFFFFFFFFFFFFFFFFFF AND EQ ISZERO PUSH2 0xF9A JUMPI PUSH1 0x40 MLOAD PUSH32 0x8C379A000000000000000000000000000000000000000000000000000000000 DUP2 MSTORE PUSH1 0x4 ADD PUSH2 0xF91 SWAP1 PUSH2 0x26E7 JUMP JUMPDEST PUSH1 0x40 MLOAD DUP1 SWAP2 SUB SWAP1 REVERT JUMPDEST PUSH2 0xFA3 DUP2 PUSH2 0x1424 JUMP JUMPDEST ISZERO PUSH2 0xFE3 JUMPI PUSH1 0x40 MLOAD PUSH32 0x8C379A000000000000000000000000000000000000000000000000000000000 DUP2 MSTORE PUSH1 0x4 ADD PUSH2 0xFDA SWAP1 PUSH2 0x2753 JUMP JUMPDEST PUSH1 0x40 MLOAD DUP1 SWAP2 SUB SWAP1 REVERT JUMPDEST PUSH2 0xFF1 PUSH1 0x0 DUP4 DUP4 PUSH1 0x1 PUSH2 0x1465 JUMP JUMPDEST PUSH2 0xFFA DUP2 PUSH2 0x1424 JUMP JUMPDEST ISZERO PUSH2 0x103A JUMPI PUSH1 0x40 MLOAD PUSH32 0x8C379A000000000000000000000000000000000000000000000000000000000 DUP2 MSTORE PUSH1 0x4 ADD PUSH2 0x1031 SWAP1 PUSH2 0x2753 JUMP JUMPDEST PUSH1 0x40 MLOAD DUP1 SWAP2 SUB SWAP1 REVERT JUMPDEST PUSH1 0x1 PUSH1 0x3 PUSH1 0x0 DUP5 PUSH20 0xFFFFFFFFFFFFFFFFFFFFFFFFFFFFFFFFFFFFFFFF AND PUSH20 0xFFFFFFFFFFFFFFFFFFFFFFFFFFFFFFFFFFFFFFFF AND DUP2 MSTORE PUSH1 0x20 ADD SWAP1 DUP2 MSTORE PUSH1 0x20 ADD PUSH1 0x0 KECCAK256 PUSH1 0x0 DUP3 DUP3 SLOAD ADD SWAP3 POP POP DUP2 SWAP1 SSTORE POP DUP2 PUSH1 0x2 PUSH1 0x0 DUP4 DUP2 MSTORE PUSH1 0x20 ADD SWAP1 DUP2 MSTORE PUSH1 0x20 ADD PUSH1 0x0 KECCAK256 PUSH1 0x0 PUSH2 0x100 EXP DUP2 SLOAD DUP2 PUSH20 0xFFFFFFFFFFFFFFFFFFFFFFFFFFFFFFFFFFFFFFFF MUL NOT AND SWAP1 DUP4 PUSH20 0xFFFFFFFFFFFFFFFFFFFFFFFFFFFFFFFFFFFFFFFF AND MUL OR SWAP1 SSTORE POP DUP1 DUP3 PUSH20 0xFFFFFFFFFFFFFFFFFFFFFFFFFFFFFFFFFFFFFFFF AND PUSH1 0x0 PUSH20 0xFFFFFFFFFFFFFFFFFFFFFFFFFFFFFFFFFFFFFFFF AND PUSH32 0xDDF252AD1BE2C89B69C2B068FC378DAA952BA7F163C4A11628F55A4DF523B3EF PUSH1 0x40 MLOAD PUSH1 0x40 MLOAD DUP1 SWAP2 SUB SWAP1 LOG4 PUSH2 0x1144 PUSH1 0x0 DUP4 DUP4 PUSH1 0x1 PUSH2 0x158B JUMP JUMPDEST POP POP JUMP JUMPDEST DUP2 PUSH20 0xFFFFFFFFFFFFFFFFFFFFFFFFFFFFFFFFFFFFFFFF AND DUP4 PUSH20 0xFFFFFFFFFFFFFFFFFFFFFFFFFFFFFFFFFFFFFFFF AND EQ ISZERO PUSH2 0x11B7 JUMPI PUSH1 0x40 MLOAD PUSH32 0x8C379A000000000000000000000000000000000000000000000000000000000 DUP2 MSTORE PUSH1 0x4 ADD PUSH2 0x11AE SWAP1 PUSH2 0x27BF JUMP JUMPDEST PUSH1 0x40 MLOAD DUP1 SWAP2 SUB SWAP1 REVERT JUMPDEST DUP1 PUSH1 0x5 PUSH1 0x0 DUP6 PUSH20 0xFFFFFFFFFFFFFFFFFFFFFFFFFFFFFFFFFFFFFFFF AND PUSH20 0xFFFFFFFFFFFFFFFFFFFFFFFFFFFFFFFFFFFFFFFF AND DUP2 MSTORE PUSH1 0x20 ADD SWAP1 DUP2 MSTORE PUSH1 0x20 ADD PUSH1 0x0 KECCAK256 PUSH1 0x0 DUP5 PUSH20 0xFFFFFFFFFFFFFFFFFFFFFFFFFFFFFFFFFFFFFFFF AND PUSH20 0xFFFFFFFFFFFFFFFFFFFFFFFFFFFFFFFFFFFFFFFF AND DUP2 MSTORE PUSH1 0x20 ADD SWAP1 DUP2 MSTORE PUSH1 0x20 ADD PUSH1 0x0 KECCAK256 PUSH1 0x0 PUSH2 0x100 EXP DUP2 SLOAD DUP2 PUSH1 0xFF MUL NOT AND SWAP1 DUP4 ISZERO ISZERO MUL OR SWAP1 SSTORE POP DUP2 PUSH20 0xFFFFFFFFFFFFFFFFFFFFFFFFFFFFFFFFFFFFFFFF AND DUP4 PUSH20 0xFFFFFFFFFFFFFFFFFFFFFFFFFFFFFFFFFFFFFFFF AND PUSH32 0x17307EAB39AB6107E8899845AD3D59BD9653F200F220920489CA2B5937696C31 DUP4 PUSH1 0x40 MLOAD PUSH2 0x12A8 SWAP2 SWAP1 PUSH2 0x1B4C JUMP JUMPDEST PUSH1 0x40 MLOAD DUP1 SWAP2 SUB SWAP1 LOG3 POP POP POP JUMP JUMPDEST PUSH2 0x12C0 DUP5 DUP5 DUP5 PUSH2 0xB7F JUMP JUMPDEST PUSH2 0x12CC DUP5 DUP5 DUP5 DUP5 PUSH2 0x1591 JUMP JUMPDEST PUSH2 0x130B JUMPI PUSH1 0x40 MLOAD PUSH32 0x8C379A000000000000000000000000000000000000000000000000000000000 DUP2 MSTORE PUSH1 0x4 ADD PUSH2 0x1302 SWAP1 PUSH2 0x2851 JUMP JUMPDEST PUSH1 0x40 MLOAD DUP1 SWAP2 SUB SWAP1 REVERT JUMPDEST POP POP POP POP JUMP JUMPDEST PUSH1 0x60 PUSH2 0x131C DUP3 PUSH2 0x9DE JUMP JUMPDEST PUSH1 0x0 PUSH1 0x6 PUSH1 0x0 DUP5 DUP2 MSTORE PUSH1 0x20 ADD SWAP1 DUP2 MSTORE PUSH1 0x20 ADD PUSH1 0x0 KECCAK256 DUP1 SLOAD PUSH2 0x133C SWAP1 PUSH2 0x2187 JUMP JUMPDEST DUP1 PUSH1 0x1F ADD PUSH1 0x20 DUP1 SWAP2 DIV MUL PUSH1 0x20 ADD PUSH1 0x40 MLOAD SWAP1 DUP2 ADD PUSH1 0x40 MSTORE DUP1 SWAP3 SWAP2 SWAP1 DUP2 DUP2 MSTORE PUSH1 0x20 ADD DUP3 DUP1 SLOAD PUSH2 0x1368 SWAP1 PUSH2 0x2187 JUMP JUMPDEST DUP1 ISZERO PUSH2 0x13B5 JUMPI DUP1 PUSH1 0x1F LT PUSH2 0x138A JUMPI PUSH2 0x100 DUP1 DUP4 SLOAD DIV MUL DUP4 MSTORE SWAP2 PUSH1 0x20 ADD SWAP2 PUSH2 0x13B5 JUMP JUMPDEST DUP3 ADD SWAP2 SWAP1 PUSH1 0x0 MSTORE PUSH1 0x20 PUSH1 0x0 KECCAK256 SWAP1 JUMPDEST DUP2 SLOAD DUP2 MSTORE SWAP1 PUSH1 0x1 ADD SWAP1 PUSH1 0x20 ADD DUP1 DUP4 GT PUSH2 0x1398 JUMPI DUP3 SWAP1 SUB PUSH1 0x1F AND DUP3 ADD SWAP2 JUMPDEST POP POP POP POP POP SWAP1 POP PUSH1 0x0 PUSH2 0x13C6 PUSH2 0x1728 JUMP JUMPDEST SWAP1 POP PUSH1 0x0 DUP2 MLOAD EQ ISZERO PUSH2 0x13DC JUMPI DUP2 SWAP3 POP POP POP PUSH2 0x141F JUMP JUMPDEST PUSH1 0x0 DUP3 MLOAD GT ISZERO PUSH2 0x1411 JUMPI DUP1 DUP3 PUSH1 0x40 MLOAD PUSH1 0x20 ADD PUSH2 0x13F9 SWAP3 SWAP2 SWAP1 PUSH2 0x28AD JUMP JUMPDEST PUSH1 0x40 MLOAD PUSH1 0x20 DUP2 DUP4 SUB SUB DUP2 MSTORE SWAP1 PUSH1 0x40 MSTORE SWAP3 POP POP POP PUSH2 0x141F JUMP JUMPDEST PUSH2 0x141A DUP5 PUSH2 0x173F JUMP JUMPDEST SWAP3 POP POP POP JUMPDEST SWAP2 SWAP1 POP JUMP JUMPDEST PUSH1 0x0 DUP1 PUSH20 0xFFFFFFFFFFFFFFFFFFFFFFFFFFFFFFFFFFFFFFFF AND PUSH2 0x1446 DUP4 PUSH2 0xE79 JUMP JUMPDEST PUSH20 0xFFFFFFFFFFFFFFFFFFFFFFFFFFFFFFFFFFFFFFFF AND EQ ISZERO SWAP1 POP SWAP2 SWAP1 POP JUMP JUMPDEST PUSH1 0x1 DUP2 GT ISZERO PUSH2 0x1585 JUMPI PUSH1 0x0 PUSH20 0xFFFFFFFFFFFFFFFFFFFFFFFFFFFFFFFFFFFFFFFF AND DUP5 PUSH20 0xFFFFFFFFFFFFFFFFFFFFFFFFFFFFFFFFFFFFFFFF AND EQ PUSH2 0x14F9 JUMPI DUP1 PUSH1 0x3 PUSH1 0x0 DUP7 PUSH20 0xFFFFFFFFFFFFFFFFFFFFFFFFFFFFFFFFFFFFFFFF AND PUSH20 0xFFFFFFFFFFFFFFFFFFFFFFFFFFFFFFFFFFFFFFFF AND DUP2 MSTORE PUSH1 0x20 ADD SWAP1 DUP2 MSTORE PUSH1 0x20 ADD PUSH1 0x0 KECCAK256 PUSH1 0x0 DUP3 DUP3 SLOAD PUSH2 0x14F1 SWAP2 SWAP1 PUSH2 0x28D1 JUMP JUMPDEST SWAP3 POP POP DUP2 SWAP1 SSTORE POP JUMPDEST PUSH1 0x0 PUSH20 0xFFFFFFFFFFFFFFFFFFFFFFFFFFFFFFFFFFFFFFFF AND DUP4 PUSH20 0xFFFFFFFFFFFFFFFFFFFFFFFFFFFFFFFFFFFFFFFF AND EQ PUSH2 0x1584 JUMPI DUP1 PUSH1 0x3 PUSH1 0x0 DUP6 PUSH20 0xFFFFFFFFFFFFFFFFFFFFFFFFFFFFFFFFFFFFFFFF AND PUSH20 0xFFFFFFFFFFFFFFFFFFFFFFFFFFFFFFFFFFFFFFFF AND DUP2 MSTORE PUSH1 0x20 ADD SWAP1 DUP2 MSTORE PUSH1 0x20 ADD PUSH1 0x0 KECCAK256 PUSH1 0x0 DUP3 DUP3 SLOAD PUSH2 0x157C SWAP2 SWAP1 PUSH2 0x2905 JUMP JUMPDEST SWAP3 POP POP DUP2 SWAP1 SSTORE POP JUMPDEST JUMPDEST POP POP POP POP JUMP JUMPDEST POP POP POP POP JUMP JUMPDEST PUSH1 0x0 PUSH2 0x15B2 DUP5 PUSH20 0xFFFFFFFFFFFFFFFFFFFFFFFFFFFFFFFFFFFFFFFF AND PUSH2 0x17A7 JUMP JUMPDEST ISZERO PUSH2 0x171B JUMPI DUP4 PUSH20 0xFFFFFFFFFFFFFFFFFFFFFFFFFFFFFFFFFFFFFFFF AND PUSH4 0x150B7A02 PUSH2 0x15DB PUSH2 0xA29 JUMP JUMPDEST DUP8 DUP7 DUP7 PUSH1 0x40 MLOAD DUP6 PUSH4 0xFFFFFFFF AND PUSH1 0xE0 SHL DUP2 MSTORE PUSH1 0x4 ADD PUSH2 0x15FD SWAP5 SWAP4 SWAP3 SWAP2 SWAP1 PUSH2 0x29B0 JUMP JUMPDEST PUSH1 0x20 PUSH1 0x40 MLOAD DUP1 DUP4 SUB DUP2 PUSH1 0x0 DUP8 DUP1 EXTCODESIZE ISZERO DUP1 ISZERO PUSH2 0x1617 JUMPI PUSH1 0x0 DUP1 REVERT JUMPDEST POP GAS CALL SWAP3 POP POP POP DUP1 ISZERO PUSH2 0x1648 JUMPI POP PUSH1 0x40 MLOAD RETURNDATASIZE PUSH1 0x1F NOT PUSH1 0x1F DUP3 ADD AND DUP3 ADD DUP1 PUSH1 0x40 MSTORE POP DUP2 ADD SWAP1 PUSH2 0x1645 SWAP2 SWAP1 PUSH2 0x2A11 JUMP JUMPDEST PUSH1 0x1 JUMPDEST PUSH2 0x16CB JUMPI RETURNDATASIZE DUP1 PUSH1 0x0 DUP2 EQ PUSH2 0x1678 JUMPI PUSH1 0x40 MLOAD SWAP2 POP PUSH1 0x1F NOT PUSH1 0x3F RETURNDATASIZE ADD AND DUP3 ADD PUSH1 0x40 MSTORE RETURNDATASIZE DUP3 MSTORE RETURNDATASIZE PUSH1 0x0 PUSH1 0x20 DUP5 ADD RETURNDATACOPY PUSH2 0x167D JUMP JUMPDEST PUSH1 0x60 SWAP2 POP JUMPDEST POP PUSH1 0x0 DUP2 MLOAD EQ ISZERO PUSH2 0x16C3 JUMPI PUSH1 0x40 MLOAD PUSH32 0x8C379A000000000000000000000000000000000000000000000000000000000 DUP2 MSTORE PUSH1 0x4 ADD PUSH2 0x16BA SWAP1 PUSH2 0x2851 JUMP JUMPDEST PUSH1 0x40 MLOAD DUP1 SWAP2 SUB SWAP1 REVERT JUMPDEST DUP1 MLOAD DUP2 PUSH1 0x20 ADD REVERT JUMPDEST PUSH4 0x150B7A02 PUSH1 0xE0 SHL PUSH28 0xFFFFFFFFFFFFFFFFFFFFFFFFFFFFFFFFFFFFFFFFFFFFFFFFFFFFFFFF NOT AND DUP2 PUSH28 0xFFFFFFFFFFFFFFFFFFFFFFFFFFFFFFFFFFFFFFFFFFFFFFFFFFFFFFFF NOT AND EQ SWAP2 POP POP PUSH2 0x1720 JUMP JUMPDEST PUSH1 0x1 SWAP1 POP JUMPDEST SWAP5 SWAP4 POP POP POP POP JUMP JUMPDEST PUSH1 0x60 PUSH1 0x40 MLOAD DUP1 PUSH1 0x20 ADD PUSH1 0x40 MSTORE DUP1 PUSH1 0x0 DUP2 MSTORE POP SWAP1 POP SWAP1 JUMP JUMPDEST PUSH1 0x60 PUSH2 0x174A DUP3 PUSH2 0x9DE JUMP JUMPDEST PUSH1 0x0 PUSH2 0x1754 PUSH2 0x1728 JUMP JUMPDEST SWAP1 POP PUSH1 0x0 DUP2 MLOAD GT PUSH2 0x1774 JUMPI PUSH1 0x40 MLOAD DUP1 PUSH1 0x20 ADD PUSH1 0x40 MSTORE DUP1 PUSH1 0x0 DUP2 MSTORE POP PUSH2 0x179F JUMP JUMPDEST DUP1 PUSH2 0x177E DUP5 PUSH2 0x17CA JUMP JUMPDEST PUSH1 0x40 MLOAD PUSH1 0x20 ADD PUSH2 0x178F SWAP3 SWAP2 SWAP1 PUSH2 0x28AD JUMP JUMPDEST PUSH1 0x40 MLOAD PUSH1 0x20 DUP2 DUP4 SUB SUB DUP2 MSTORE SWAP1 PUSH1 0x40 MSTORE JUMPDEST SWAP2 POP POP SWAP2 SWAP1 POP JUMP JUMPDEST PUSH1 0x0 DUP1 DUP3 PUSH20 0xFFFFFFFFFFFFFFFFFFFFFFFFFFFFFFFFFFFFFFFF AND EXTCODESIZE GT SWAP1 POP SWAP2 SWAP1 POP JUMP JUMPDEST PUSH1 0x60 PUSH1 0x0 PUSH1 0x1 PUSH2 0x17D9 DUP5 PUSH2 0x18A2 JUMP JUMPDEST ADD SWAP1 POP PUSH1 0x0 DUP2 PUSH8 0xFFFFFFFFFFFFFFFF DUP2 GT ISZERO PUSH2 0x17F8 JUMPI PUSH2 0x17F7 PUSH2 0x1DAA JUMP JUMPDEST JUMPDEST PUSH1 0x40 MLOAD SWAP1 DUP1 DUP3 MSTORE DUP1 PUSH1 0x1F ADD PUSH1 0x1F NOT AND PUSH1 0x20 ADD DUP3 ADD PUSH1 0x40 MSTORE DUP1 ISZERO PUSH2 0x182A JUMPI DUP2 PUSH1 0x20 ADD PUSH1 0x1 DUP3 MUL DUP1 CALLDATASIZE DUP4 CALLDATACOPY DUP1 DUP3 ADD SWAP2 POP POP SWAP1 POP JUMPDEST POP SWAP1 POP PUSH1 0x0 DUP3 PUSH1 0x20 ADD DUP3 ADD SWAP1 POP JUMPDEST PUSH1 0x1 ISZERO PUSH2 0x1897 JUMPI DUP1 DUP1 PUSH1 0x1 SWAP1 SUB SWAP2 POP POP PUSH32 0x3031323334353637383961626364656600000000000000000000000000000000 PUSH1 0xA DUP7 MOD BYTE DUP2 MSTORE8 PUSH1 0xA DUP6 DUP2 PUSH2 0x1881 JUMPI PUSH2 0x1880 PUSH2 0x2A3E JUMP JUMPDEST JUMPDEST DIV SWAP5 POP PUSH1 0x0 DUP6 EQ ISZERO PUSH2 0x1892 JUMPI PUSH2 0x1897 JUMP JUMPDEST PUSH2 0x1838 JUMP JUMPDEST DUP2 SWAP4 POP POP POP POP SWAP2 SWAP1 POP JUMP JUMPDEST PUSH1 0x0 DUP1 PUSH1 0x0 SWAP1 POP PUSH27 0x184F03E93FF9F4DAA797ED6E38ED64BF6A1F010000000000000000 DUP4 LT PUSH2 0x1900 JUMPI PUSH27 0x184F03E93FF9F4DAA797ED6E38ED64BF6A1F010000000000000000 DUP4 DUP2 PUSH2 0x18F6 JUMPI PUSH2 0x18F5 PUSH2 0x2A3E JUMP JUMPDEST JUMPDEST DIV SWAP3 POP PUSH1 0x40 DUP2 ADD SWAP1 POP JUMPDEST PUSH14 0x4EE2D6D415B85ACEF8100000000 DUP4 LT PUSH2 0x193D JUMPI PUSH14 0x4EE2D6D415B85ACEF8100000000 DUP4 DUP2 PUSH2 0x1933 JUMPI PUSH2 0x1932 PUSH2 0x2A3E JUMP JUMPDEST JUMPDEST DIV SWAP3 POP PUSH1 0x20 DUP2 ADD SWAP1 POP JUMPDEST PUSH7 0x2386F26FC10000 DUP4 LT PUSH2 0x196C JUMPI PUSH7 0x2386F26FC10000 DUP4 DUP2 PUSH2 0x1962 JUMPI PUSH2 0x1961 PUSH2 0x2A3E JUMP JUMPDEST JUMPDEST DIV SWAP3 POP PUSH1 0x10 DUP2 ADD SWAP1 POP JUMPDEST PUSH4 0x5F5E100 DUP4 LT PUSH2 0x1995 JUMPI PUSH4 0x5F5E100 DUP4 DUP2 PUSH2 0x198B JUMPI PUSH2 0x198A PUSH2 0x2A3E JUMP JUMPDEST JUMPDEST DIV SWAP3 POP PUSH1 0x8 DUP2 ADD SWAP1 POP JUMPDEST PUSH2 0x2710 DUP4 LT PUSH2 0x19BA JUMPI PUSH2 0x2710 DUP4 DUP2 PUSH2 0x19B0 JUMPI PUSH2 0x19AF PUSH2 0x2A3E JUMP JUMPDEST JUMPDEST DIV SWAP3 POP PUSH1 0x4 DUP2 ADD SWAP1 POP JUMPDEST PUSH1 0x64 DUP4 LT PUSH2 0x19DD JUMPI PUSH1 0x64 DUP4 DUP2 PUSH2 0x19D3 JUMPI PUSH2 0x19D2 PUSH2 0x2A3E JUMP JUMPDEST JUMPDEST DIV SWAP3 POP PUSH1 0x2 DUP2 ADD SWAP1 POP JUMPDEST PUSH1 0xA DUP4 LT PUSH2 0x19EC JUMPI PUSH1 0x1 DUP2 ADD SWAP1 POP JUMPDEST DUP1 SWAP2 POP POP SWAP2 SWAP1 POP JUMP JUMPDEST DUP3 DUP1 SLOAD PUSH2 0x1A01 SWAP1 PUSH2 0x2187 JUMP JUMPDEST SWAP1 PUSH1 0x0 MSTORE PUSH1 0x20 PUSH1 0x0 KECCAK256 SWAP1 PUSH1 0x1F ADD PUSH1 0x20 SWAP1 DIV DUP2 ADD SWAP3 DUP3 PUSH2 0x1A23 JUMPI PUSH1 0x0 DUP6 SSTORE PUSH2 0x1A6A JUMP JUMPDEST DUP3 PUSH1 0x1F LT PUSH2 0x1A3C JUMPI DUP1 MLOAD PUSH1 0xFF NOT AND DUP4 DUP1 ADD OR DUP6 SSTORE PUSH2 0x1A6A JUMP JUMPDEST DUP3 DUP1 ADD PUSH1 0x1 ADD DUP6 SSTORE DUP3 ISZERO PUSH2 0x1A6A JUMPI SWAP2 DUP3 ADD JUMPDEST DUP3 DUP2 GT ISZERO PUSH2 0x1A69 JUMPI DUP3 MLOAD DUP3 SSTORE SWAP2 PUSH1 0x20 ADD SWAP2 SWAP1 PUSH1 0x1 ADD SWAP1 PUSH2 0x1A4E JUMP JUMPDEST JUMPDEST POP SWAP1 POP PUSH2 0x1A77 SWAP2 SWAP1 PUSH2 0x1A7B JUMP JUMPDEST POP SWAP1 JUMP JUMPDEST JUMPDEST DUP1 DUP3 GT ISZERO PUSH2 0x1A94 JUMPI PUSH1 0x0 DUP2 PUSH1 0x0 SWAP1 SSTORE POP PUSH1 0x1 ADD PUSH2 0x1A7C JUMP JUMPDEST POP SWAP1 JUMP JUMPDEST PUSH1 0x0 PUSH1 0x40 MLOAD SWAP1 POP SWAP1 JUMP JUMPDEST PUSH1 0x0 DUP1 REVERT JUMPDEST PUSH1 0x0 DUP1 REVERT JUMPDEST PUSH1 0x0 PUSH32 0xFFFFFFFF00000000000000000000000000000000000000000000000000000000 DUP3 AND SWAP1 POP SWAP2 SWAP1 POP JUMP JUMPDEST PUSH2 0x1AE1 DUP2 PUSH2 0x1AAC JUMP JUMPDEST DUP2 EQ PUSH2 0x1AEC JUMPI PUSH1 0x0 DUP1 REVERT JUMPDEST POP JUMP JUMPDEST PUSH1 0x0 DUP2 CALLDATALOAD SWAP1 POP PUSH2 0x1AFE DUP2 PUSH2 0x1AD8 JUMP JUMPDEST SWAP3 SWAP2 POP POP JUMP JUMPDEST PUSH1 0x0 PUSH1 0x20 DUP3 DUP5 SUB SLT ISZERO PUSH2 0x1B1A JUMPI PUSH2 0x1B19 PUSH2 0x1AA2 JUMP JUMPDEST JUMPDEST PUSH1 0x0 PUSH2 0x1B28 DUP5 DUP3 DUP6 ADD PUSH2 0x1AEF JUMP JUMPDEST SWAP2 POP POP SWAP3 SWAP2 POP POP JUMP JUMPDEST PUSH1 0x0 DUP2 ISZERO ISZERO SWAP1 POP SWAP2 SWAP1 POP JUMP JUMPDEST PUSH2 0x1B46 DUP2 PUSH2 0x1B31 JUMP JUMPDEST DUP3 MSTORE POP POP JUMP JUMPDEST PUSH1 0x0 PUSH1 0x20 DUP3 ADD SWAP1 POP PUSH2 0x1B61 PUSH1 0x0 DUP4 ADD DUP5 PUSH2 0x1B3D JUMP JUMPDEST SWAP3 SWAP2 POP POP JUMP JUMPDEST PUSH1 0x0 DUP2 MLOAD SWAP1 POP SWAP2 SWAP1 POP JUMP JUMPDEST PUSH1 0x0 DUP3 DUP3 MSTORE PUSH1 0x20 DUP3 ADD SWAP1 POP SWAP3 SWAP2 POP POP JUMP JUMPDEST PUSH1 0x0 JUMPDEST DUP4 DUP2 LT ISZERO PUSH2 0x1BA1 JUMPI DUP1 DUP3 ADD MLOAD DUP2 DUP5 ADD MSTORE PUSH1 0x20 DUP2 ADD SWAP1 POP PUSH2 0x1B86 JUMP JUMPDEST DUP4 DUP2 GT ISZERO PUSH2 0x1BB0 JUMPI PUSH1 0x0 DUP5 DUP5 ADD MSTORE JUMPDEST POP POP POP POP JUMP JUMPDEST PUSH1 0x0 PUSH1 0x1F NOT PUSH1 0x1F DUP4 ADD AND SWAP1 POP SWAP2 SWAP1 POP JUMP JUMPDEST PUSH1 0x0 PUSH2 0x1BD2 DUP3 PUSH2 0x1B67 JUMP JUMPDEST PUSH2 0x1BDC DUP2 DUP6 PUSH2 0x1B72 JUMP JUMPDEST SWAP4 POP PUSH2 0x1BEC DUP2 DUP6 PUSH1 0x20 DUP7 ADD PUSH2 0x1B83 JUMP JUMPDEST PUSH2 0x1BF5 DUP2 PUSH2 0x1BB6 JUMP JUMPDEST DUP5 ADD SWAP2 POP POP SWAP3 SWAP2 POP POP JUMP JUMPDEST PUSH1 0x0 PUSH1 0x20 DUP3 ADD SWAP1 POP DUP2 DUP2 SUB PUSH1 0x0 DUP4 ADD MSTORE PUSH2 0x1C1A DUP2 DUP5 PUSH2 0x1BC7 JUMP JUMPDEST SWAP1 POP SWAP3 SWAP2 POP POP JUMP JUMPDEST PUSH1 0x0 DUP2 SWAP1 POP SWAP2 SWAP1 POP JUMP JUMPDEST PUSH2 0x1C35 DUP2 PUSH2 0x1C22 JUMP JUMPDEST DUP2 EQ PUSH2 0x1C40 JUMPI PUSH1 0x0 DUP1 REVERT JUMPDEST POP JUMP JUMPDEST PUSH1 0x0 DUP2 CALLDATALOAD SWAP1 POP PUSH2 0x1C52 DUP2 PUSH2 0x1C2C JUMP JUMPDEST SWAP3 SWAP2 POP POP JUMP JUMPDEST PUSH1 0x0 PUSH1 0x20 DUP3 DUP5 SUB SLT ISZERO PUSH2 0x1C6E JUMPI PUSH2 0x1C6D PUSH2 0x1AA2 JUMP JUMPDEST JUMPDEST PUSH1 0x0 PUSH2 0x1C7C DUP5 DUP3 DUP6 ADD PUSH2 0x1C43 JUMP JUMPDEST SWAP2 POP POP SWAP3 SWAP2 POP POP JUMP JUMPDEST PUSH1 0x0 PUSH20 0xFFFFFFFFFFFFFFFFFFFFFFFFFFFFFFFFFFFFFFFF DUP3 AND SWAP1 POP SWAP2 SWAP1 POP JUMP JUMPDEST PUSH1 0x0 PUSH2 0x1CB0 DUP3 PUSH2 0x1C85 JUMP JUMPDEST SWAP1 POP SWAP2 SWAP1 POP JUMP JUMPDEST PUSH2 0x1CC0 DUP2 PUSH2 0x1CA5 JUMP JUMPDEST DUP3 MSTORE POP POP JUMP JUMPDEST PUSH1 0x0 PUSH1 0x20 DUP3 ADD SWAP1 POP PUSH2 0x1CDB PUSH1 0x0 DUP4 ADD DUP5 PUSH2 0x1CB7 JUMP JUMPDEST SWAP3 SWAP2 POP POP JUMP JUMPDEST PUSH2 0x1CEA DUP2 PUSH2 0x1CA5 JUMP JUMPDEST DUP2 EQ PUSH2 0x1CF5 JUMPI PUSH1 0x0 DUP1 REVERT JUMPDEST POP JUMP JUMPDEST PUSH1 0x0 DUP2 CALLDATALOAD SWAP1 POP PUSH2 0x1D07 DUP2 PUSH2 0x1CE1 JUMP JUMPDEST SWAP3 SWAP2 POP POP JUMP JUMPDEST PUSH1 0x0 DUP1 PUSH1 0x40 DUP4 DUP6 SUB SLT ISZERO PUSH2 0x1D24 JUMPI PUSH2 0x1D23 PUSH2 0x1AA2 JUMP JUMPDEST JUMPDEST PUSH1 0x0 PUSH2 0x1D32 DUP6 DUP3 DUP7 ADD PUSH2 0x1CF8 JUMP JUMPDEST SWAP3 POP POP PUSH1 0x20 PUSH2 0x1D43 DUP6 DUP3 DUP7 ADD PUSH2 0x1C43 JUMP JUMPDEST SWAP2 POP POP SWAP3 POP SWAP3 SWAP1 POP JUMP JUMPDEST PUSH1 0x0 DUP1 PUSH1 0x0 PUSH1 0x60 DUP5 DUP7 SUB SLT ISZERO PUSH2 0x1D66 JUMPI PUSH2 0x1D65 PUSH2 0x1AA2 JUMP JUMPDEST JUMPDEST PUSH1 0x0 PUSH2 0x1D74 DUP7 DUP3 DUP8 ADD PUSH2 0x1CF8 JUMP JUMPDEST SWAP4 POP POP PUSH1 0x20 PUSH2 0x1D85 DUP7 DUP3 DUP8 ADD PUSH2 0x1CF8 JUMP JUMPDEST SWAP3 POP POP PUSH1 0x40 PUSH2 0x1D96 DUP7 DUP3 DUP8 ADD PUSH2 0x1C43 JUMP JUMPDEST SWAP2 POP POP SWAP3 POP SWAP3 POP SWAP3 JUMP JUMPDEST PUSH1 0x0 DUP1 REVERT JUMPDEST PUSH1 0x0 DUP1 REVERT JUMPDEST PUSH32 0x4E487B7100000000000000000000000000000000000000000000000000000000 PUSH1 0x0 MSTORE PUSH1 0x41 PUSH1 0x4 MSTORE PUSH1 0x24 PUSH1 0x0 REVERT JUMPDEST PUSH2 0x1DE2 DUP3 PUSH2 0x1BB6 JUMP JUMPDEST DUP2 ADD DUP2 DUP2 LT PUSH8 0xFFFFFFFFFFFFFFFF DUP3 GT OR ISZERO PUSH2 0x1E01 JUMPI PUSH2 0x1E00 PUSH2 0x1DAA JUMP JUMPDEST JUMPDEST DUP1 PUSH1 0x40 MSTORE POP POP POP JUMP JUMPDEST PUSH1 0x0 PUSH2 0x1E14 PUSH2 0x1A98 JUMP JUMPDEST SWAP1 POP PUSH2 0x1E20 DUP3 DUP3 PUSH2 0x1DD9 JUMP JUMPDEST SWAP2 SWAP1 POP JUMP JUMPDEST PUSH1 0x0 PUSH8 0xFFFFFFFFFFFFFFFF DUP3 GT ISZERO PUSH2 0x1E40 JUMPI PUSH2 0x1E3F PUSH2 0x1DAA JUMP JUMPDEST JUMPDEST PUSH2 0x1E49 DUP3 PUSH2 0x1BB6 JUMP JUMPDEST SWAP1 POP PUSH1 0x20 DUP2 ADD SWAP1 POP SWAP2 SWAP1 POP JUMP JUMPDEST DUP3 DUP2 DUP4 CALLDATACOPY PUSH1 0x0 DUP4 DUP4 ADD MSTORE POP POP POP JUMP JUMPDEST PUSH1 0x0 PUSH2 0x1E78 PUSH2 0x1E73 DUP5 PUSH2 0x1E25 JUMP JUMPDEST PUSH2 0x1E0A JUMP JUMPDEST SWAP1 POP DUP3 DUP2 MSTORE PUSH1 0x20 DUP2 ADD DUP5 DUP5 DUP5 ADD GT ISZERO PUSH2 0x1E94 JUMPI PUSH2 0x1E93 PUSH2 0x1DA5 JUMP JUMPDEST JUMPDEST PUSH2 0x1E9F DUP5 DUP3 DUP6 PUSH2 0x1E56 JUMP JUMPDEST POP SWAP4 SWAP3 POP POP POP JUMP JUMPDEST PUSH1 0x0 DUP3 PUSH1 0x1F DUP4 ADD SLT PUSH2 0x1EBC JUMPI PUSH2 0x1EBB PUSH2 0x1DA0 JUMP JUMPDEST JUMPDEST DUP2 CALLDATALOAD PUSH2 0x1ECC DUP5 DUP3 PUSH1 0x20 DUP7 ADD PUSH2 0x1E65 JUMP JUMPDEST SWAP2 POP POP SWAP3 SWAP2 POP POP JUMP JUMPDEST PUSH1 0x0 DUP1 PUSH1 0x40 DUP4 DUP6 SUB SLT ISZERO PUSH2 0x1EEC JUMPI PUSH2 0x1EEB PUSH2 0x1AA2 JUMP JUMPDEST JUMPDEST PUSH1 0x0 PUSH2 0x1EFA DUP6 DUP3 DUP7 ADD PUSH2 0x1CF8 JUMP JUMPDEST SWAP3 POP POP PUSH1 0x20 DUP4 ADD CALLDATALOAD PUSH8 0xFFFFFFFFFFFFFFFF DUP2 GT ISZERO PUSH2 0x1F1B JUMPI PUSH2 0x1F1A PUSH2 0x1AA7 JUMP JUMPDEST JUMPDEST PUSH2 0x1F27 DUP6 DUP3 DUP7 ADD PUSH2 0x1EA7 JUMP JUMPDEST SWAP2 POP POP SWAP3 POP SWAP3 SWAP1 POP JUMP JUMPDEST PUSH1 0x0 PUSH1 0x20 DUP3 DUP5 SUB SLT ISZERO PUSH2 0x1F47 JUMPI PUSH2 0x1F46 PUSH2 0x1AA2 JUMP JUMPDEST JUMPDEST PUSH1 0x0 PUSH2 0x1F55 DUP5 DUP3 DUP6 ADD PUSH2 0x1CF8 JUMP JUMPDEST SWAP2 POP POP SWAP3 SWAP2 POP POP JUMP JUMPDEST PUSH2 0x1F67 DUP2 PUSH2 0x1C22 JUMP JUMPDEST DUP3 MSTORE POP POP JUMP JUMPDEST PUSH1 0x0 PUSH1 0x20 DUP3 ADD SWAP1 POP PUSH2 0x1F82 PUSH1 0x0 DUP4 ADD DUP5 PUSH2 0x1F5E JUMP JUMPDEST SWAP3 SWAP2 POP POP JUMP JUMPDEST PUSH2 0x1F91 DUP2 PUSH2 0x1B31 JUMP JUMPDEST DUP2 EQ PUSH2 0x1F9C JUMPI PUSH1 0x0 DUP1 REVERT JUMPDEST POP JUMP JUMPDEST PUSH1 0x0 DUP2 CALLDATALOAD SWAP1 POP PUSH2 0x1FAE DUP2 PUSH2 0x1F88 JUMP JUMPDEST SWAP3 SWAP2 POP POP JUMP JUMPDEST PUSH1 0x0 DUP1 PUSH1 0x40 DUP4 DUP6 SUB SLT ISZERO PUSH2 0x1FCB JUMPI PUSH2 0x1FCA PUSH2 0x1AA2 JUMP JUMPDEST JUMPDEST PUSH1 0x0 PUSH2 0x1FD9 DUP6 DUP3 DUP7 ADD PUSH2 0x1CF8 JUMP JUMPDEST SWAP3 POP POP PUSH1 0x20 PUSH2 0x1FEA DUP6 DUP3 DUP7 ADD PUSH2 0x1F9F JUMP JUMPDEST SWAP2 POP POP SWAP3 POP SWAP3 SWAP1 POP JUMP JUMPDEST PUSH1 0x0 PUSH8 0xFFFFFFFFFFFFFFFF DUP3 GT ISZERO PUSH2 0x200F JUMPI PUSH2 0x200E PUSH2 0x1DAA JUMP JUMPDEST JUMPDEST PUSH2 0x2018 DUP3 PUSH2 0x1BB6 JUMP JUMPDEST SWAP1 POP PUSH1 0x20 DUP2 ADD SWAP1 POP SWAP2 SWAP1 POP JUMP JUMPDEST PUSH1 0x0 PUSH2 0x2038 PUSH2 0x2033 DUP5 PUSH2 0x1FF4 JUMP JUMPDEST PUSH2 0x1E0A JUMP JUMPDEST SWAP1 POP DUP3 DUP2 MSTORE PUSH1 0x20 DUP2 ADD DUP5 DUP5 DUP5 ADD GT ISZERO PUSH2 0x2054 JUMPI PUSH2 0x2053 PUSH2 0x1DA5 JUMP JUMPDEST JUMPDEST PUSH2 0x205F DUP5 DUP3 DUP6 PUSH2 0x1E56 JUMP JUMPDEST POP SWAP4 SWAP3 POP POP POP JUMP JUMPDEST PUSH1 0x0 DUP3 PUSH1 0x1F DUP4 ADD SLT PUSH2 0x207C JUMPI PUSH2 0x207B PUSH2 0x1DA0 JUMP JUMPDEST JUMPDEST DUP2 CALLDATALOAD PUSH2 0x208C DUP5 DUP3 PUSH1 0x20 DUP7 ADD PUSH2 0x2025 JUMP JUMPDEST SWAP2 POP POP SWAP3 SWAP2 POP POP JUMP JUMPDEST PUSH1 0x0 DUP1 PUSH1 0x0 DUP1 PUSH1 0x80 DUP6 DUP8 SUB SLT ISZERO PUSH2 0x20AF JUMPI PUSH2 0x20AE PUSH2 0x1AA2 JUMP JUMPDEST JUMPDEST PUSH1 0x0 PUSH2 0x20BD DUP8 DUP3 DUP9 ADD PUSH2 0x1CF8 JUMP JUMPDEST SWAP5 POP POP PUSH1 0x20 PUSH2 0x20CE DUP8 DUP3 DUP9 ADD PUSH2 0x1CF8 JUMP JUMPDEST SWAP4 POP POP PUSH1 0x40 PUSH2 0x20DF DUP8 DUP3 DUP9 ADD PUSH2 0x1C43 JUMP JUMPDEST SWAP3 POP POP PUSH1 0x60 DUP6 ADD CALLDATALOAD PUSH8 0xFFFFFFFFFFFFFFFF DUP2 GT ISZERO PUSH2 0x2100 JUMPI PUSH2 0x20FF PUSH2 0x1AA7 JUMP JUMPDEST JUMPDEST PUSH2 0x210C DUP8 DUP3 DUP9 ADD PUSH2 0x2067 JUMP JUMPDEST SWAP2 POP POP SWAP3 SWAP6 SWAP2 SWAP5 POP SWAP3 POP JUMP JUMPDEST PUSH1 0x0 DUP1 PUSH1 0x40 DUP4 DUP6 SUB SLT ISZERO PUSH2 0x212F JUMPI PUSH2 0x212E PUSH2 0x1AA2 JUMP JUMPDEST JUMPDEST PUSH1 0x0 PUSH2 0x213D DUP6 DUP3 DUP7 ADD PUSH2 0x1CF8 JUMP JUMPDEST SWAP3 POP POP PUSH1 0x20 PUSH2 0x214E DUP6 DUP3 DUP7 ADD PUSH2 0x1CF8 JUMP JUMPDEST SWAP2 POP POP SWAP3 POP SWAP3 SWAP1 POP JUMP JUMPDEST PUSH32 0x4E487B7100000000000000000000000000000000000000000000000000000000 PUSH1 0x0 MSTORE PUSH1 0x22 PUSH1 0x4 MSTORE PUSH1 0x24 PUSH1 0x0 REVERT JUMPDEST PUSH1 0x0 PUSH1 0x2 DUP3 DIV SWAP1 POP PUSH1 0x1 DUP3 AND DUP1 PUSH2 0x219F JUMPI PUSH1 0x7F DUP3 AND SWAP2 POP JUMPDEST PUSH1 0x20 DUP3 LT DUP2 EQ ISZERO PUSH2 0x21B3 JUMPI PUSH2 0x21B2 PUSH2 0x2158 JUMP JUMPDEST JUMPDEST POP SWAP2 SWAP1 POP JUMP JUMPDEST PUSH32 0x4552433732313A20617070726F76616C20746F2063757272656E74206F776E65 PUSH1 0x0 DUP3 ADD MSTORE PUSH32 0x7200000000000000000000000000000000000000000000000000000000000000 PUSH1 0x20 DUP3 ADD MSTORE POP JUMP JUMPDEST PUSH1 0x0 PUSH2 0x2215 PUSH1 0x21 DUP4 PUSH2 0x1B72 JUMP JUMPDEST SWAP2 POP PUSH2 0x2220 DUP3 PUSH2 0x21B9 JUMP JUMPDEST PUSH1 0x40 DUP3 ADD SWAP1 POP SWAP2 SWAP1 POP JUMP JUMPDEST PUSH1 0x0 PUSH1 0x20 DUP3 ADD SWAP1 POP DUP2 DUP2 SUB PUSH1 0x0 DUP4 ADD MSTORE PUSH2 0x2244 DUP2 PUSH2 0x2208 JUMP JUMPDEST SWAP1 POP SWAP2 SWAP1 POP JUMP JUMPDEST PUSH32 0x4552433732313A20617070726F76652063616C6C6572206973206E6F7420746F PUSH1 0x0 DUP3 ADD MSTORE PUSH32 0x6B656E206F776E6572206F7220617070726F76656420666F7220616C6C000000 PUSH1 0x20 DUP3 ADD MSTORE POP JUMP JUMPDEST PUSH1 0x0 PUSH2 0x22A7 PUSH1 0x3D DUP4 PUSH2 0x1B72 JUMP JUMPDEST SWAP2 POP PUSH2 0x22B2 DUP3 PUSH2 0x224B JUMP JUMPDEST PUSH1 0x40 DUP3 ADD SWAP1 POP SWAP2 SWAP1 POP JUMP JUMPDEST PUSH1 0x0 PUSH1 0x20 DUP3 ADD SWAP1 POP DUP2 DUP2 SUB PUSH1 0x0 DUP4 ADD MSTORE PUSH2 0x22D6 DUP2 PUSH2 0x229A JUMP JUMPDEST SWAP1 POP SWAP2 SWAP1 POP JUMP JUMPDEST PUSH32 0x4552433732313A2063616C6C6572206973206E6F7420746F6B656E206F776E65 PUSH1 0x0 DUP3 ADD MSTORE PUSH32 0x72206F7220617070726F76656400000000000000000000000000000000000000 PUSH1 0x20 DUP3 ADD MSTORE POP JUMP JUMPDEST PUSH1 0x0 PUSH2 0x2339 PUSH1 0x2D DUP4 PUSH2 0x1B72 JUMP JUMPDEST SWAP2 POP PUSH2 0x2344 DUP3 PUSH2 0x22DD JUMP JUMPDEST PUSH1 0x40 DUP3 ADD SWAP1 POP SWAP2 SWAP1 POP JUMP JUMPDEST PUSH1 0x0 PUSH1 0x20 DUP3 ADD SWAP1 POP DUP2 DUP2 SUB PUSH1 0x0 DUP4 ADD MSTORE PUSH2 0x2368 DUP2 PUSH2 0x232C JUMP JUMPDEST SWAP1 POP SWAP2 SWAP1 POP JUMP JUMPDEST PUSH32 0x4552433732313A20696E76616C696420746F6B656E2049440000000000000000 PUSH1 0x0 DUP3 ADD MSTORE POP JUMP JUMPDEST PUSH1 0x0 PUSH2 0x23A5 PUSH1 0x18 DUP4 PUSH2 0x1B72 JUMP JUMPDEST SWAP2 POP PUSH2 0x23B0 DUP3 PUSH2 0x236F JUMP JUMPDEST PUSH1 0x20 DUP3 ADD SWAP1 POP SWAP2 SWAP1 POP JUMP JUMPDEST PUSH1 0x0 PUSH1 0x20 DUP3 ADD SWAP1 POP DUP2 DUP2 SUB PUSH1 0x0 DUP4 ADD MSTORE PUSH2 0x23D4 DUP2 PUSH2 0x2398 JUMP JUMPDEST SWAP1 POP SWAP2 SWAP1 POP JUMP JUMPDEST PUSH32 0x4E487B7100000000000000000000000000000000000000000000000000000000 PUSH1 0x0 MSTORE PUSH1 0x11 PUSH1 0x4 MSTORE PUSH1 0x24 PUSH1 0x0 REVERT JUMPDEST PUSH1 0x0 PUSH2 0x2415 DUP3 PUSH2 0x1C22 JUMP JUMPDEST SWAP2 POP PUSH32 0xFFFFFFFFFFFFFFFFFFFFFFFFFFFFFFFFFFFFFFFFFFFFFFFFFFFFFFFFFFFFFFFF DUP3 EQ ISZERO PUSH2 0x2448 JUMPI PUSH2 0x2447 PUSH2 0x23DB JUMP JUMPDEST JUMPDEST PUSH1 0x1 DUP3 ADD SWAP1 POP SWAP2 SWAP1 POP JUMP JUMPDEST PUSH32 0x4552433732313A2061646472657373207A65726F206973206E6F742061207661 PUSH1 0x0 DUP3 ADD MSTORE PUSH32 0x6C6964206F776E65720000000000000000000000000000000000000000000000 PUSH1 0x20 DUP3 ADD MSTORE POP JUMP JUMPDEST PUSH1 0x0 PUSH2 0x24AF PUSH1 0x29 DUP4 PUSH2 0x1B72 JUMP JUMPDEST SWAP2 POP PUSH2 0x24BA DUP3 PUSH2 0x2453 JUMP JUMPDEST PUSH1 0x40 DUP3 ADD SWAP1 POP SWAP2 SWAP1 POP JUMP JUMPDEST PUSH1 0x0 PUSH1 0x20 DUP3 ADD SWAP1 POP DUP2 DUP2 SUB PUSH1 0x0 DUP4 ADD MSTORE PUSH2 0x24DE DUP2 PUSH2 0x24A2 JUMP JUMPDEST SWAP1 POP SWAP2 SWAP1 POP JUMP JUMPDEST PUSH32 0x4552433732313A207472616E736665722066726F6D20696E636F727265637420 PUSH1 0x0 DUP3 ADD MSTORE PUSH32 0x6F776E6572000000000000000000000000000000000000000000000000000000 PUSH1 0x20 DUP3 ADD MSTORE POP JUMP JUMPDEST PUSH1 0x0 PUSH2 0x2541 PUSH1 0x25 DUP4 PUSH2 0x1B72 JUMP JUMPDEST SWAP2 POP PUSH2 0x254C DUP3 PUSH2 0x24E5 JUMP JUMPDEST PUSH1 0x40 DUP3 ADD SWAP1 POP SWAP2 SWAP1 POP JUMP JUMPDEST PUSH1 0x0 PUSH1 0x20 DUP3 ADD SWAP1 POP DUP2 DUP2 SUB PUSH1 0x0 DUP4 ADD MSTORE PUSH2 0x2570 DUP2 PUSH2 0x2534 JUMP JUMPDEST SWAP1 POP SWAP2 SWAP1 POP JUMP JUMPDEST PUSH32 0x4552433732313A207472616E7366657220746F20746865207A65726F20616464 PUSH1 0x0 DUP3 ADD MSTORE PUSH32 0x7265737300000000000000000000000000000000000000000000000000000000 PUSH1 0x20 DUP3 ADD MSTORE POP JUMP JUMPDEST PUSH1 0x0 PUSH2 0x25D3 PUSH1 0x24 DUP4 PUSH2 0x1B72 JUMP JUMPDEST SWAP2 POP PUSH2 0x25DE DUP3 PUSH2 0x2577 JUMP JUMPDEST PUSH1 0x40 DUP3 ADD SWAP1 POP SWAP2 SWAP1 POP JUMP JUMPDEST PUSH1 0x0 PUSH1 0x20 DUP3 ADD SWAP1 POP DUP2 DUP2 SUB PUSH1 0x0 DUP4 ADD MSTORE PUSH2 0x2602 DUP2 PUSH2 0x25C6 JUMP JUMPDEST SWAP1 POP SWAP2 SWAP1 POP JUMP JUMPDEST PUSH32 0x45524337323155524953746F726167653A2055524920736574206F66206E6F6E PUSH1 0x0 DUP3 ADD MSTORE PUSH32 0x6578697374656E7420746F6B656E000000000000000000000000000000000000 PUSH1 0x20 DUP3 ADD MSTORE POP JUMP JUMPDEST PUSH1 0x0 PUSH2 0x2665 PUSH1 0x2E DUP4 PUSH2 0x1B72 JUMP JUMPDEST SWAP2 POP PUSH2 0x2670 DUP3 PUSH2 0x2609 JUMP JUMPDEST PUSH1 0x40 DUP3 ADD SWAP1 POP SWAP2 SWAP1 POP JUMP JUMPDEST PUSH1 0x0 PUSH1 0x20 DUP3 ADD SWAP1 POP DUP2 DUP2 SUB PUSH1 0x0 DUP4 ADD MSTORE PUSH2 0x2694 DUP2 PUSH2 0x2658 JUMP JUMPDEST SWAP1 POP SWAP2 SWAP1 POP JUMP JUMPDEST PUSH32 0x4552433732313A206D696E7420746F20746865207A65726F2061646472657373 PUSH1 0x0 DUP3 ADD MSTORE POP JUMP JUMPDEST PUSH1 0x0 PUSH2 0x26D1 PUSH1 0x20 DUP4 PUSH2 0x1B72 JUMP JUMPDEST SWAP2 POP PUSH2 0x26DC DUP3 PUSH2 0x269B JUMP JUMPDEST PUSH1 0x20 DUP3 ADD SWAP1 POP SWAP2 SWAP1 POP JUMP JUMPDEST PUSH1 0x0 PUSH1 0x20 DUP3 ADD SWAP1 POP DUP2 DUP2 SUB PUSH1 0x0 DUP4 ADD MSTORE PUSH2 0x2700 DUP2 PUSH2 0x26C4 JUMP JUMPDEST SWAP1 POP SWAP2 SWAP1 POP JUMP JUMPDEST PUSH32 0x4552433732313A20746F6B656E20616C7265616479206D696E74656400000000 PUSH1 0x0 DUP3 ADD MSTORE POP JUMP JUMPDEST PUSH1 0x0 PUSH2 0x273D PUSH1 0x1C DUP4 PUSH2 0x1B72 JUMP JUMPDEST SWAP2 POP PUSH2 0x2748 DUP3 PUSH2 0x2707 JUMP JUMPDEST PUSH1 0x20 DUP3 ADD SWAP1 POP SWAP2 SWAP1 POP JUMP JUMPDEST PUSH1 0x0 PUSH1 0x20 DUP3 ADD SWAP1 POP DUP2 DUP2 SUB PUSH1 0x0 DUP4 ADD MSTORE PUSH2 0x276C DUP2 PUSH2 0x2730 JUMP JUMPDEST SWAP1 POP SWAP2 SWAP1 POP JUMP JUMPDEST PUSH32 0x4552433732313A20617070726F766520746F2063616C6C657200000000000000 PUSH1 0x0 DUP3 ADD MSTORE POP JUMP JUMPDEST PUSH1 0x0 PUSH2 0x27A9 PUSH1 0x19 DUP4 PUSH2 0x1B72 JUMP JUMPDEST SWAP2 POP PUSH2 0x27B4 DUP3 PUSH2 0x2773 JUMP JUMPDEST PUSH1 0x20 DUP3 ADD SWAP1 POP SWAP2 SWAP1 POP JUMP JUMPDEST PUSH1 0x0 PUSH1 0x20 DUP3 ADD SWAP1 POP DUP2 DUP2 SUB PUSH1 0x0 DUP4 ADD MSTORE PUSH2 0x27D8 DUP2 PUSH2 0x279C JUMP JUMPDEST SWAP1 POP SWAP2 SWAP1 POP JUMP JUMPDEST PUSH32 0x4552433732313A207472616E7366657220746F206E6F6E204552433732315265 PUSH1 0x0 DUP3 ADD MSTORE PUSH32 0x63656976657220696D706C656D656E7465720000000000000000000000000000 PUSH1 0x20 DUP3 ADD MSTORE POP JUMP JUMPDEST PUSH1 0x0 PUSH2 0x283B PUSH1 0x32 DUP4 PUSH2 0x1B72 JUMP JUMPDEST SWAP2 POP PUSH2 0x2846 DUP3 PUSH2 0x27DF JUMP JUMPDEST PUSH1 0x40 DUP3 ADD SWAP1 POP SWAP2 SWAP1 POP JUMP JUMPDEST PUSH1 0x0 PUSH1 0x20 DUP3 ADD SWAP1 POP DUP2 DUP2 SUB PUSH1 0x0 DUP4 ADD MSTORE PUSH2 0x286A DUP2 PUSH2 0x282E JUMP JUMPDEST SWAP1 POP SWAP2 SWAP1 POP JUMP JUMPDEST PUSH1 0x0 DUP2 SWAP1 POP SWAP3 SWAP2 POP POP JUMP JUMPDEST PUSH1 0x0 PUSH2 0x2887 DUP3 PUSH2 0x1B67 JUMP JUMPDEST PUSH2 0x2891 DUP2 DUP6 PUSH2 0x2871 JUMP JUMPDEST SWAP4 POP PUSH2 0x28A1 DUP2 DUP6 PUSH1 0x20 DUP7 ADD PUSH2 0x1B83 JUMP JUMPDEST DUP1 DUP5 ADD SWAP2 POP POP SWAP3 SWAP2 POP POP JUMP JUMPDEST PUSH1 0x0 PUSH2 0x28B9 DUP3 DUP6 PUSH2 0x287C JUMP JUMPDEST SWAP2 POP PUSH2 0x28C5 DUP3 DUP5 PUSH2 0x287C JUMP JUMPDEST SWAP2 POP DUP2 SWAP1 POP SWAP4 SWAP3 POP POP POP JUMP JUMPDEST PUSH1 0x0 PUSH2 0x28DC DUP3 PUSH2 0x1C22 JUMP JUMPDEST SWAP2 POP PUSH2 0x28E7 DUP4 PUSH2 0x1C22 JUMP JUMPDEST SWAP3 POP DUP3 DUP3 LT ISZERO PUSH2 0x28FA JUMPI PUSH2 0x28F9 PUSH2 0x23DB JUMP JUMPDEST JUMPDEST DUP3 DUP3 SUB SWAP1 POP SWAP3 SWAP2 POP POP JUMP JUMPDEST PUSH1 0x0 PUSH2 0x2910 DUP3 PUSH2 0x1C22 JUMP JUMPDEST SWAP2 POP PUSH2 0x291B DUP4 PUSH2 0x1C22 JUMP JUMPDEST SWAP3 POP DUP3 PUSH32 0xFFFFFFFFFFFFFFFFFFFFFFFFFFFFFFFFFFFFFFFFFFFFFFFFFFFFFFFFFFFFFFFF SUB DUP3 GT ISZERO PUSH2 0x2950 JUMPI PUSH2 0x294F PUSH2 0x23DB JUMP JUMPDEST JUMPDEST DUP3 DUP3 ADD SWAP1 POP SWAP3 SWAP2 POP POP JUMP JUMPDEST PUSH1 0x0 DUP2 MLOAD SWAP1 POP SWAP2 SWAP1 POP JUMP JUMPDEST PUSH1 0x0 DUP3 DUP3 MSTORE PUSH1 0x20 DUP3 ADD SWAP1 POP SWAP3 SWAP2 POP POP JUMP JUMPDEST PUSH1 0x0 PUSH2 0x2982 DUP3 PUSH2 0x295B JUMP JUMPDEST PUSH2 0x298C DUP2 DUP6 PUSH2 0x2966 JUMP JUMPDEST SWAP4 POP PUSH2 0x299C DUP2 DUP6 PUSH1 0x20 DUP7 ADD PUSH2 0x1B83 JUMP JUMPDEST PUSH2 0x29A5 DUP2 PUSH2 0x1BB6 JUMP JUMPDEST DUP5 ADD SWAP2 POP POP SWAP3 SWAP2 POP POP JUMP JUMPDEST PUSH1 0x0 PUSH1 0x80 DUP3 ADD SWAP1 POP PUSH2 0x29C5 PUSH1 0x0 DUP4 ADD DUP8 PUSH2 0x1CB7 JUMP JUMPDEST PUSH2 0x29D2 PUSH1 0x20 DUP4 ADD DUP7 PUSH2 0x1CB7 JUMP JUMPDEST PUSH2 0x29DF PUSH1 0x40 DUP4 ADD DUP6 PUSH2 0x1F5E JUMP JUMPDEST DUP2 DUP2 SUB PUSH1 0x60 DUP4 ADD MSTORE PUSH2 0x29F1 DUP2 DUP5 PUSH2 0x2977 JUMP JUMPDEST SWAP1 POP SWAP6 SWAP5 POP POP POP POP POP JUMP JUMPDEST PUSH1 0x0 DUP2 MLOAD SWAP1 POP PUSH2 0x2A0B DUP2 PUSH2 0x1AD8 JUMP JUMPDEST SWAP3 SWAP2 POP POP JUMP JUMPDEST PUSH1 0x0 PUSH1 0x20 DUP3 DUP5 SUB SLT ISZERO PUSH2 0x2A27 JUMPI PUSH2 0x2A26 PUSH2 0x1AA2 JUMP JUMPDEST JUMPDEST PUSH1 0x0 PUSH2 0x2A35 DUP5 DUP3 DUP6 ADD PUSH2 0x29FC JUMP JUMPDEST SWAP2 POP POP SWAP3 SWAP2 POP POP JUMP JUMPDEST PUSH32 0x4E487B7100000000000000000000000000000000000000000000000000000000 PUSH1 0x0 MSTORE PUSH1 0x12 PUSH1 0x4 MSTORE PUSH1 0x24 PUSH1 0x0 REVERT INVALID LOG2 PUSH5 0x6970667358 0x22 SLT KECCAK256 0xF9 SUB 0x28 0x2E PUSH23 0xB8F150C9AE5860A6DB7B3C4EAE48E3AE774AB7C247417E CALLDATASIZE 0xBE SAR SDIV PUSH5 0x736F6C6343 STOP ADDMOD MULMOD STOP CALLER "},"methodIdentifiers":{"_mintNFT(address,string)":"68f81c31","approve(address,uint256)":"095ea7b3","balanceOf(address)":"70a08231","getApproved(uint256)":"081812fc","isApprovedForAll(address,address)":"e985e9c5","name()":"06fdde03","ownerOf(uint256)":"6352211e","safeTransferFrom(address,address,uint256)":"42842e0e","safeTransferFrom(address,address,uint256,bytes)":"b88d4fde","setApprovalForAll(address,bool)":"a22cb465","supportsInterface(bytes4)":"01ffc9a7","symbol()":"95d89b41","tokenURI(uint256)":"c87b56dd","transferFrom(address,address,uint256)":"23b872dd"}}}}}