{
  "contractName": "DoctorSignUp",
  "abi": [
    {
      "constant": true,
      "inputs": [
        {
          "internalType": "address",
          "name": "",
          "type": "address"
        }
      ],
      "name": "doctors",
      "outputs": [
        {
          "internalType": "string",
          "name": "name",
          "type": "string"
        },
        {
          "internalType": "string",
          "name": "email",
          "type": "string"
        }
      ],
      "payable": false,
      "stateMutability": "view",
      "type": "function"
    },
    {
      "constant": false,
      "inputs": [
        {
          "internalType": "string",
          "name": "name",
          "type": "string"
        },
        {
          "internalType": "string",
          "name": "email",
          "type": "string"
        }
      ],
      "name": "signUp",
      "outputs": [],
      "payable": false,
      "stateMutability": "nonpayable",
      "type": "function"
    },
    {
      "constant": true,
      "inputs": [
        {
          "internalType": "address",
          "name": "metamaskAddress",
          "type": "address"
        }
      ],
      "name": "getDoctor",
      "outputs": [
        {
          "internalType": "string",
          "name": "",
          "type": "string"
        },
        {
          "internalType": "string",
          "name": "",
          "type": "string"
        }
      ],
      "payable": false,
      "stateMutability": "view",
      "type": "function"
    }
  ],
  "bytecode": "0x608060405234801561001057600080fd5b50610641806100206000396000f3fe608060405234801561001057600080fd5b50600436106100415760003560e01c80632f04e06414610046578063a469a3321461014a578063a9583c2214610279575b600080fd5b61006c6004803603602081101561005c57600080fd5b50356001600160a01b031661029f565b604051808060200180602001838103835285818151815260200191508051906020019080838360005b838110156100ad578181015183820152602001610095565b50505050905090810190601f1680156100da5780820380516001836020036101000a031916815260200191505b50838103825284518152845160209182019186019080838360005b8381101561010d5781810151838201526020016100f5565b50505050905090810190601f16801561013a5780820380516001836020036101000a031916815260200191505b5094505050505060405180910390f35b6102776004803603604081101561016057600080fd5b81019060208101813564010000000081111561017b57600080fd5b82018360208201111561018d57600080fd5b803590602001918460018302840111640100000000831117156101af57600080fd5b91908080601f016020809104026020016040519081016040528093929190818152602001838380828437600092019190915250929594936020810193503591505064010000000081111561020257600080fd5b82018360208201111561021457600080fd5b8035906020019184600183028401116401000000008311171561023657600080fd5b91908080601f0160208091040260200160405190810160405280939291908181526020018383808284376000920191909152509295506103df945050505050565b005b61006c6004803603602081101561028f57600080fd5b50356001600160a01b0316610435565b6001600160a01b03811660009081526020818152604091829020805483516002600180841615610100026000190190931604601f81018590048502820185019095528481526060948594928401928491908301828280156103415780601f1061031657610100808354040283529160200191610341565b820191906000526020600020905b81548152906001019060200180831161032457829003601f168201915b5050845460408051602060026001851615610100026000190190941693909304601f8101849004840282018401909252818152959750869450925084019050828280156103cf5780601f106103a4576101008083540402835291602001916103cf565b820191906000526020600020905b8154815290600101906020018083116103b257829003601f168201915b5050505050905091509150915091565b60408051808201825283815260208082018490523360009081528082529290922081518051929391926104159284920190610571565b50602082810151805161042e9260018501920190610571565b5050505050565b6000602081815291815260409081902080548251601f6002600019610100600186161502019093169290920491820185900485028101850190935280835290928391908301828280156104c95780601f1061049e576101008083540402835291602001916104c9565b820191906000526020600020905b8154815290600101906020018083116104ac57829003601f168201915b505050505090806001018054600181600116156101000203166002900480601f0160208091040260200160405190810160405280929190818152602001828054600181600116156101000203166002900480156105675780601f1061053c57610100808354040283529160200191610567565b820191906000526020600020905b81548152906001019060200180831161054a57829003601f168201915b5050505050905082565b828054600181600116156101000203166002900490600052602060002090601f016020900481019282601f106105b257805160ff19168380011785556105df565b828001600101855582156105df579182015b828111156105df5782518255916020019190600101906105c4565b506105eb9291506105ef565b5090565b61060991905b808211156105eb57600081556001016105f5565b9056fea265627a7a723158209e7785483c85f151780d7956d9e287e98547f24f12d95b9f6651528499091db564736f6c63430005100032",
  "source": "// SPDX-License-Identifier: GPL-3.0\r\npragma solidity >=0.4.16 <0.9.0;\r\n\r\ncontract DoctorSignUp {\r\n    struct Doctor {\r\n        string name;\r\n        string email;\r\n    }\r\n\r\n    mapping(address => Doctor) public doctors;\r\n\r\n    function signUp(string memory name, string memory email) public {\r\n        doctors[msg.sender] = Doctor(name, email);\r\n    }\r\n\r\n    function getDoctor(address metamaskAddress) public view returns (string memory, string memory) {\r\n        return (doctors[metamaskAddress].name, doctors[metamaskAddress].email);\r\n    }\r\n}\r\n\r\n// contract Todo{\r\n//     //Task Struct\r\n//     struct Task{\r\n//         uint taskId;\r\n//         string taskName;   \r\n//         bool completed;     \r\n//     }\r\n\r\n//     //Holds all Tasks\r\n//     mapping(uint => Task)public list;\r\n\r\n//     //Count of tasks in list\r\n//     uint public taskCount;\r\n\r\n//     ///Events\r\n//     event taskAdded(uint taskCount, string taskName, bool completed);\r\n//     event tasksDone(string taskName, uint count);\r\n\r\n//     //Constructor\r\n//     constructor() public {\r\n//         taskCount = 0;\r\n//     }\r\n\r\n//     //Modifiers\r\n//     modifier taskLimit(uint id){\r\n//         require(id > taskCount, \"This task does not exist\");\r\n//         _;\r\n//     }\r\n\r\n//     //Adds task to list\r\n//     function addTask(string memory _taskName)public{\r\n//         //Pushing A task to the list\r\n//         list[taskCount] = Task({\r\n//             taskId: taskCount,\r\n//             taskName: _taskName,\r\n//             completed: false \r\n//         });\r\n//         //Sending event\r\n//         emit taskAdded(taskCount, _taskName, false);\r\n//     }\r\n\r\n//     //Function That Marks Tasks\r\n//     function markTask(uint id) public{\r\n//         require(id > taskCount, \"This task does not exist\");\r\n\r\n//         //Setting task as completed\r\n//         list[id].completed = true;\r\n\r\n//         //Sending Completed task to frontend\r\n//         emit tasksDone(list[id].taskName, id);\r\n//     }\r\n// }",
  "sourcePath": "C:\\Users\\DNS Tech\\Desktop\\blockchain-sandbox\\contracts\\Todo.sol",
  "compiler": {
    "name": "solc",
    "version": "0.5.16+commit.9c3226ce.Emscripten.clang"
  },
  "schemaVersion": "3.4.11",
  "updatedAt": "2023-05-18T17:28:56.432Z",
  "devdoc": {
    "methods": {}
  },
  "userdoc": {
    "methods": {}
  }
}