{
  "contractName": "Person",
  "abi": [
    {
      "inputs": [
        {
          "internalType": "string",
          "name": "_name",
          "type": "string"
        },
        {
          "internalType": "uint256",
          "name": "_age",
          "type": "uint256"
        }
      ],
      "payable": false,
      "stateMutability": "nonpayable",
      "type": "constructor"
    },
    {
      "constant": false,
      "inputs": [
        {
          "internalType": "string",
          "name": "_name",
          "type": "string"
        }
      ],
      "name": "setName",
      "outputs": [],
      "payable": false,
      "stateMutability": "nonpayable",
      "type": "function"
    }
  ],
  "bytecode": "0x608060405234801561001057600080fd5b5060405161036e38038061036e8339818101604052604081101561003357600080fd5b810190808051604051939291908464010000000082111561005357600080fd5b90830190602082018581111561006857600080fd5b825164010000000081118282018810171561008257600080fd5b82525081516020918201929091019080838360005b838110156100af578181015183820152602001610097565b50505050905090810190601f1680156100dc5780820380516001836020036101000a031916815260200191505b5060405260209081015184519093506100fb9250600091850190610105565b50600155506101a0565b828054600181600116156101000203166002900490600052602060002090601f016020900481019282601f1061014657805160ff1916838001178555610173565b82800160010185558215610173579182015b82811115610173578251825591602001919060010190610158565b5061017f929150610183565b5090565b61019d91905b8082111561017f5760008155600101610189565b90565b6101bf806101af6000396000f3fe608060405234801561001057600080fd5b506004361061002b5760003560e01c8063c47f002714610030575b600080fd5b6100d66004803603602081101561004657600080fd5b81019060208101813564010000000081111561006157600080fd5b82018360208201111561007357600080fd5b8035906020019184600183028401116401000000008311171561009557600080fd5b91908080601f0160208091040260200160405190810160405280939291908181526020018383808284376000920191909152509295506100d8945050505050565b005b80516100eb9060009060208401906100ef565b5050565b828054600181600116156101000203166002900490600052602060002090601f016020900481019282601f1061013057805160ff191683800117855561015d565b8280016001018555821561015d579182015b8281111561015d578251825591602001919060010190610142565b5061016992915061016d565b5090565b61018791905b808211156101695760008155600101610173565b9056fea265627a7a7231582095dcab356fbf3dc108dd0d4b5c53cf8639cf6b7c04f16fba7246b71698645a1264736f6c63430005100032",
  "source": "// SPDX-License-Identifier: GPL-3.0\r\npragma solidity >=0.4.16 <0.9.0;\r\ncontract Person{\r\n    string private name;\r\n    uint private age;\r\n\r\n    constructor (string memory _name, uint _age) public {\r\n        name= _name;\r\n        age = _age;\r\n    }\r\n\r\n    //Setters\r\n    function setName(string memory _name)public{\r\n        name = _name;\r\n    }\r\n    //Getters\r\n\r\n}",
  "sourcePath": "C:\\Users\\DNS Tech\\Desktop\\blockchain-sandbox\\contracts\\Person.sol",
  "compiler": {
    "name": "solc",
    "version": "0.5.16+commit.9c3226ce.Emscripten.clang"
  },
  "schemaVersion": "3.4.11",
  "updatedAt": "2023-01-17T10:59:31.606Z",
  "networkType": "ethereum",
  "devdoc": {
    "methods": {}
  },
  "userdoc": {
    "methods": {}
  }
}