{
  "contractName": "Todo",
  "abi": [
    {
      "inputs": [],
      "payable": false,
      "stateMutability": "nonpayable",
      "type": "constructor"
    },
    {
      "anonymous": false,
      "inputs": [
        {
          "indexed": false,
          "internalType": "uint256",
          "name": "taskCount",
          "type": "uint256"
        },
        {
          "indexed": false,
          "internalType": "string",
          "name": "taskName",
          "type": "string"
        },
        {
          "indexed": false,
          "internalType": "bool",
          "name": "completed",
          "type": "bool"
        }
      ],
      "name": "taskAdded",
      "type": "event"
    },
    {
      "anonymous": false,
      "inputs": [
        {
          "indexed": false,
          "internalType": "string",
          "name": "taskName",
          "type": "string"
        },
        {
          "indexed": false,
          "internalType": "uint256",
          "name": "count",
          "type": "uint256"
        }
      ],
      "name": "tasksDone",
      "type": "event"
    },
    {
      "constant": true,
      "inputs": [
        {
          "internalType": "uint256",
          "name": "",
          "type": "uint256"
        }
      ],
      "name": "list",
      "outputs": [
        {
          "internalType": "uint256",
          "name": "taskId",
          "type": "uint256"
        },
        {
          "internalType": "string",
          "name": "taskName",
          "type": "string"
        },
        {
          "internalType": "bool",
          "name": "completed",
          "type": "bool"
        }
      ],
      "payable": false,
      "stateMutability": "view",
      "type": "function"
    },
    {
      "constant": true,
      "inputs": [],
      "name": "taskCount",
      "outputs": [
        {
          "internalType": "uint256",
          "name": "",
          "type": "uint256"
        }
      ],
      "payable": false,
      "stateMutability": "view",
      "type": "function"
    },
    {
      "constant": false,
      "inputs": [
        {
          "internalType": "string",
          "name": "_taskName",
          "type": "string"
        }
      ],
      "name": "addTask",
      "outputs": [],
      "payable": false,
      "stateMutability": "nonpayable",
      "type": "function"
    },
    {
      "constant": false,
      "inputs": [
        {
          "internalType": "uint256",
          "name": "id",
          "type": "uint256"
        }
      ],
      "name": "markTask",
      "outputs": [],
      "payable": false,
      "stateMutability": "nonpayable",
      "type": "function"
    }
  ],
  "bytecode": "0x608060405234801561001057600080fd5b5060006001556105a0806100256000396000f3fe608060405234801561001057600080fd5b506004361061004c5760003560e01c806357e240ee14610051578063672385621461007057806380c9419e14610116578063b6cb58a5146101bd575b600080fd5b61006e6004803603602081101561006757600080fd5b50356101d7565b005b61006e6004803603602081101561008657600080fd5b8101906020810181356401000000008111156100a157600080fd5b8201836020820111156100b357600080fd5b803590602001918460018302840111640100000000831117156100d557600080fd5b91908080601f016020809104026020016040519081016040528093929190818152602001838380828437600092019190915250929550610307945050505050565b6101336004803603602081101561012c57600080fd5b503561041d565b604051808481526020018060200183151515158152602001828103825284818151815260200191508051906020019080838360005b83811015610180578181015183820152602001610168565b50505050905090810190601f1680156101ad5780820380516001836020036101000a031916815260200191505b5094505050505060405180910390f35b6101c56104ca565b60408051918252519081900360200190f35b600154811161022d576040805162461bcd60e51b815260206004820152601860248201527f54686973207461736b20646f6573206e6f742065786973740000000000000000604482015290519081900360640190fd5b600081815260208181526040918290206002808201805460ff1916600190811790915584519384018690528484529182018054600019938116156101000293909301909216049282018390527f296fc37a503e2d2266edebba09fb36d0e68e467f2b78fb246139d6813c048abd929091849181906060820190859080156102f55780601f106102ca576101008083540402835291602001916102f5565b820191906000526020600020905b8154815290600101906020018083116102d857829003601f168201915b5050935050505060405180910390a150565b60408051606081018252600180548083526020808401868152600085870181905292835282825294909120835181559351805193949361034e9385019291909101906104d0565b50604091820151600291909101805460ff1916911515919091179055600154815181815260009281018390526060602080830182815286519284019290925285517fc58da280309600ca05a886bc74156af6a8141909d2250cabed1ae59e30fa3d859587949093909290916080840191860190808383885b838110156103de5781810151838201526020016103c6565b50505050905090810190601f16801561040b5780820380516001836020036101000a031916815260200191505b5094505050505060405180910390a150565b600060208181529181526040908190208054600180830180548551600293821615610100026000190190911692909204601f81018790048702830187019095528482529194929390928301828280156104b75780601f1061048c576101008083540402835291602001916104b7565b820191906000526020600020905b81548152906001019060200180831161049a57829003601f168201915b5050506002909301549192505060ff1683565b60015481565b828054600181600116156101000203166002900490600052602060002090601f016020900481019282601f1061051157805160ff191683800117855561053e565b8280016001018555821561053e579182015b8281111561053e578251825591602001919060010190610523565b5061054a92915061054e565b5090565b61056891905b8082111561054a5760008155600101610554565b9056fea265627a7a7231582094c7cfe7b208459c6292f6a26f2e24e2bf4a36c27706baf3223030caefe330a264736f6c63430005100032",
  "source": "// SPDX-License-Identifier: GPL-3.0\r\npragma solidity >=0.4.16 <0.9.0;\r\n\r\ncontract Todo{\r\n    //Task Struct\r\n    struct Task{\r\n        uint taskId;\r\n        string taskName;   \r\n        bool completed;     \r\n    }\r\n\r\n    //Holds all Tasks\r\n    mapping(uint => Task)public list;\r\n\r\n    //Count of tasks in list\r\n    uint public taskCount;\r\n\r\n    ///Events\r\n    event taskAdded(uint taskCount, string taskName, bool completed);\r\n    event tasksDone(string taskName, uint count);\r\n\r\n    //Constructor\r\n    constructor() public {\r\n        taskCount = 0;\r\n    }\r\n\r\n    //Modifiers\r\n    modifier taskLimit(uint id){\r\n        require(id > taskCount, \"This task does not exist\");\r\n        _;\r\n    }\r\n\r\n    //Adds task to list\r\n    function addTask(string memory _taskName)public{\r\n        //Pushing A task to the list\r\n        list[taskCount] = Task({\r\n            taskId: taskCount,\r\n            taskName: _taskName,\r\n            completed: false \r\n        });\r\n        //Sending event\r\n        emit taskAdded(taskCount, _taskName, false);\r\n    }\r\n\r\n    //Function That Marks Tasks\r\n    function markTask(uint id) public{\r\n        require(id > taskCount, \"This task does not exist\");\r\n\r\n        //Setting task as completed\r\n        list[id].completed = true;\r\n\r\n        //Sending Completed task to frontend\r\n        emit tasksDone(list[id].taskName, id);\r\n    }\r\n}",
  "sourcePath": "C:\\Users\\DNS Tech\\Desktop\\blockchain-sandbox\\contracts\\Todo.sol",
  "compiler": {
    "name": "solc",
    "version": "0.5.16+commit.9c3226ce.Emscripten.clang"
  },
  "schemaVersion": "3.4.11",
  "updatedAt": "2023-05-18T17:22:35.925Z",
  "networkType": "ethereum",
  "devdoc": {
    "methods": {}
  },
  "userdoc": {
    "methods": {}
  }
}